:100000000C947A000C94A2000C94A2000C94A20010
:100010000C94A2000C94A2000C94A2000C94A200D8
:100020000C94A2000C94A2000C94A2000C94A200C8
:100030000C94A2000C94A2000C94A2000C94A200B8
:100040000C94BD030C94A2000C944B060C94A200DB
:100050000C94A2000C94A2000C94A2000C94A20098
:100060000C94A2000C94A200084AD73B3BCE016E30
:1000700084BCBFFDC12F3D6C74319ABD56833DDAFF
:100080003D00C77F11BED9E4BB4C3E916BAAAABE0E
:10009000000000803F00000000240027002A00002C
:1000A000000000250028002B00000000002300268F
:1000B00000290004040404040404040202020202ED
:1000C000020303030303030102040810204080011C
:1000D000020408102001020408102000000007009C
:1000E0000201000003040600000000000000000000
:1000F0003B01C70711241FBECFEFD8E0DEBFCDBF45
:1001000011E0A0E0B1E0E8E1F6E102C005900D9257
:10011000AE39B107D9F712E0AEE9B1E001C01D92E6
:10012000A235B107E1F710E0C4EFD0E004C0229798
:10013000FE010E94060BC03FD107C9F70E94B6031B
:100140000C940A0B0C940000FC0160834183128222
:100150001382148215820895CF92DF92EF92FF925C
:100160000F931F93CF93DF93EC01E62E8A819B813F
:10017000AC81BD810097A105B10559F10E811F81A8
:1001800003501040898160E00E94A304C8010E94CE
:100190003D04CC24DD24FF24F3948F2D8E2119F00F
:1001A000898161E002C0898160E00E94A304C801E6
:1001B0000E943D04FF0C0894C11CD11C88E0C816A5
:1001C000D10459F7898161E00E94A304C8010E940B
:1001D0003D04DF91CF911F910F91FF90EF90DF9041
:1001E000CF900895CF93DF93EC016DE00E94AC00B7
:1001F000CE016AE00E94AC00DF91CF9108950F9389
:100200001F93CF93DF93EC018B0105C00F5F1F4F4E
:10021000CE010E94AC00F80160816623B9F7DF913E
:10022000CF911F910F910895CF93DF93EC010E941E
:10023000FF00CE010E94F200DF91CF910895CF938D
:10024000DF93EC019A01AB012A833B834C835D83EE
:1002500060E472E48FE090E00E94D50A3F832E8331
:10026000898161E00E94A3048E819F810E943D04E8
:10027000DF91CF9108958AEA91E060910F0140915A
:100280000D010E94A4000895EF92FF920F931F9317
:10029000CF93DF93EC01062F172F81E0E82EF12C8E
:1002A00026C08091080160E00E94A304C701002ECF
:1002B00002C0880F991F0A94E2F79C012C233D236A
:1002C0002817390721F480910A0161E003C0809169
:1002D0000A0160E00E94A3048091080161E00E948D
:1002E000A30481E090E00E943D040150104017FFFC
:1002F000D8CFDF91CF911F910F91FF90EF9008958C
:1003000080910A0161E00E9484048091090160E00B
:100310000E94A30488E090E063E070E00E94440142
:100320008091090161E00E94A304089580910A016F
:1003300061E00E9484048091090160E00E94A304AE
:1003400080E090E063E070E00E9444018091090148
:1003500061E00E94A3040895CF92DF92EF92FF9292
:100360000F931F93DF93CF930F92CDB7DEB7082F74
:1003700080910A0160E099830E9484049981192F79
:10038000CC24DD2420C08091080161E00E94A304F8
:1003900081E090E00E943D0480910A010E94EF04F8
:1003A000CC0CDD1C8130910519F40894C11CD11CC2
:1003B0008091080160E00E94A30481E090E00E9427
:1003C0003D040150104017FFDECFD3FE05C0E12CE5
:1003D00098EFF92ECE28DF28C6010F90CF91DF913C
:1003E0001F910F91FF90EF90DF90CF900895809133
:1003F0000A0161E00E9484048091090160E00E948A
:10040000A3048CE090E063E070E00E94440183E08C
:1004100090E00E94AC0108958091A4019091A50103
:10042000009721F10E94050420919E0130919F01C7
:100430004091A0015091A101621B730B840B950B9D
:100440002091060130910701442737FD4095542F34
:10045000261737074807590748F48091A20160E042
:100460000E94A3041092A5011092A40108951F9365
:10047000DF93CF930F92CDB7DEB7182F8091A201F3
:1004800060E099830E94A304812F61E00E94A3048D
:100490001093A20199819093A3010E940504609397
:1004A0009E0170939F018093A0019093A10181E030
:1004B00090E09093A5018093A4010F90CF91DF91DC
:1004C0001F9108951F93CF93DF938FE392E00E94D3
:1004D0007A07882309F4A8C08FE392E00E9490076E
:1004E000182FC82FD0E09E01265530408091020180
:1004F00090910301821793076CF49E0127553040B9
:100500008091040190910501821793071CF0CE01A0
:100510000E943702153641F460910B0170910C0175
:100520008FE392E00E94390620911101309112016F
:10053000C217D3070CF478C0809113019091140175
:10054000820F931F8C179D070CF46EC08AEA91E00E
:1005500060E071E00E9414011C3609F441C01D36B0
:1005600078F4183649F1193630F41636D9F01736C2
:1005700009F05AC01CC01A3649F11B3660F521C07B
:100580001F36E9F1103730F41D3679F11E3609F0C7
:100590004BC030C01137E9F11137B0F1123709F013
:1005A00043C03CC08AEA91E061E771E03BC08AEA5F
:1005B00091E06BE771E036C08AEA91E064E471E0B3
:1005C00031C08AEA91E06CE171E02CC08AEA91E0E6
:1005D00063E571E027C08AEA91E065E871E022C036
:1005E0008AEA91E062E671E01DC08AEA91E06AE27F
:1005F00071E018C08AEA91E064E271E013C08AEA0F
:1006000091E061E371E00EC08AEA91E069E371E094
:1006100009C08AEA91E06EE371E004C08AEA91E0E1
:1006200065E171E00E941401DF91CF911F9108955F
:10063000EF92FF920F931F930E9462020E940C029E
:100640000E94800168E270E080E090E00E94130464
:100650000E94F7018BE090E00E94AC019093A7010B
:100660008093A6018BE090E00E94AC019093A901D9
:100670008093A8018091090161E00E94A304609128
:10068000A8017091A901709561957F4F882777FD2A
:100690008095982F0E9463097B018C016091A601CF
:1006A0007091A701882777FD8095982F0E94630994
:1006B0009B01AC01C801B7010E9475082BED3FE01A
:1006C00049E450E40E94C80820E030E044E353E4E9
:1006D0000E941B0A0E94300970930C0160930B0169
:1006E0001F910F91FF90EF900895DF93CF93CDB7B7
:1006F000DEB728970FB6F894DEBF0FBECDBF8FE3ED
:1007000092E040E052EC61E070E00E948906809146
:10071000090161E00E9484048091080161E00E9467
:10072000840480910A0160E00E94840480910D019C
:1007300061E00E9484048AEA91E040E855E260E0CA
:1007400070E00E941F010E949601CE010196609107
:100750000F0140910D010E94A40028960FB6F89455
:10076000DEBF0FBECDBFCF91DF9108950E944A0436
:100770000E9475030E941803FDCF1F920F920FB6BF
:100780000F9211242F933F938F939F93AF93BF9317
:100790008091B6019091B701A091B801B091B901D3
:1007A0003091BA010196A11DB11D232F2D5F2D3768
:1007B00020F02D570196A11DB11D2093BA01809301
:1007C000B6019093B701A093B801B093B90180919D
:1007D000B2019091B301A091B401B091B50101961D
:1007E000A11DB11D8093B2019093B301A093B401F8
:1007F000B093B501BF91AF919F918F913F912F9190
:100800000F900FBE0F901F9018958FB7F8942091FE
:10081000B6013091B7014091B8015091B9018FBF35
:10082000B901CA010895EF92FF920F931F937B01C4
:100830008C018FB7F8942091B6013091B7014091A7
:10084000B8015091B9018FBF6FB7F8948091B6018C
:100850009091B701A091B801B091B9016FBF821B0F
:10086000930BA40BB50BE816F9060A071B0760F7F4
:100870001F910F91FF90EF900895019751F0880F0D
:10088000991F880F991F02972FB7F8940197F1F7D6
:100890002FBF0895789484B5826084BD84B581604B
:1008A00084BD85B5826085BD85B5816085BDEEE678
:1008B000F0E0808181608083E1E8F0E08081826007
:1008C0008083808181608083E0E8F0E080818160C6
:1008D0008083E1EBF0E0808184608083E0EBF0E0F6
:1008E000808181608083EAE7F0E08081846080839A
:1008F0008081826080838081816080838081806844
:1009000080831092C1000895282F30E0C9018953D7
:100910009F4FFC019491F901ED54FF4FE491EE23B8
:1009200089F0F0E0EE0FFF1FEB56FF4FA591B49159
:10093000662329F48C91909589238C9308958C914A
:10094000892B8C930895482F50E0CA0185529F4F00
:10095000FC0194919A0129533F4FF9012491FA0126
:10096000ED54FF4FE491EE23C9F1992331F1933017
:1009700021F4909180009F7705C0943031F49091DC
:1009800080009F7D9093800018C0913019F494B539
:100990009F7704C0923021F494B59F7D94BD0DC023
:1009A000963021F49091B0009F7705C0973029F4DC
:1009B0009091B0009F7D9093B000F0E0EE0FFF1F8C
:1009C000E156FF4FA591B491662329F48C912095AF
:1009D00082238C9308958C91822B8C930895282FD9
:1009E00030E0C90185529F4FFC019491A901495300
:1009F0005F4FFA014491F901ED54FF4FE491EE236A
:100A000019F420E030E036C0992331F1933021F41D
:100A1000909180009F7705C0943031F490918000D0
:100A20009F7D9093800018C0913019F494B59F7702
:100A300004C0923021F494B59F7D94BD0DC09630D2
:100A400021F49091B0009F7705C0973029F49091E0
:100A5000B0009F7D9093B000F0E0EE0FFF1FE755D0
:100A6000FF4FA591B4918C9120E030E0842311F0E8
:100A700021E030E0C90108950F931F93CF93DF93D6
:100A8000EC018B0109C00F5F1F4FE881F9810190D4
:100A9000F081E02DCE010995F8016081662399F778
:100AA000DF91CF911F910F910895EF92FF920F93D5
:100AB0001F93CF93DF93EC018B017A010DC0F801F6
:100AC00061918F01E881F9810190F081E02DCE01E3
:100AD00009950894E108F108E114F10481F7DF9128
:100AE000CF911F910F91FF90EF900895DC01ED9150
:100AF000FC910190F081E02D09950895CF93DF934B
:100B0000EC016DE00E947605CE016AE00E94760558
:100B1000DF91CF9108952F923F924F925F926F9203
:100B20007F928F929F92AF92BF92CF92DF92EF927D
:100B3000FF920F931F93DF93CF93CDB7DEB7A297AA
:100B40000FB6F894DEBF0FBECDBF2C015A016B016A
:100B5000411551056105710521F460E30E94760598
:100B60004CC0EE24FF248701622E77248824992428
:100B70001E010894211C311CC1018E0D9F1D9AA3DA
:100B800089A3C601B501A40193010E94B30AE9A19A
:100B9000FAA160830894E11CF11C011D111DC6011E
:100BA000B501A40193010E94B30AA22EB32EC42E54
:100BB000D52EA114B104C104D104F1F6D801C701A6
:100BC0000197A109B109280E391E12C00894E10845
:100BD000F10801091109F10160816A3010F4605DCA
:100BE00001C0695CC2010E947605089421083108A1
:100BF000E114F1040105110549F7A2960FB6F89426
:100C0000DEBF0FBECDBFCF91DF911F910F91FF903F
:100C1000EF90DF90CF90BF90AF909F908F907F909C
:100C20006F905F904F903F902F900895EF92FF92BA
:100C30000F931F93CF93DF93EC017A018B0177FF22
:100C40000BC06DE20E94760510950095F094E0943B
:100C5000E11CF11C011D111DCE01B801A7012AE004
:100C60000E948B05DF91CF911F910F91FF90EF9024
:100C70000895CF93DF93EC01CB01AC01662757FDBC
:100C80006095762FCE010E941606CE010E947E0549
:100C9000DF91CF9108951F920F920FB60F921124FA
:100CA0002F933F934F935F936F937F938F939F9374
:100CB000AF93BF93EF93FF934091C60020913B0207
:100CC00030913C02C901019660E870E00E94A00AE0
:100CD000BC0180913D0290913E026817790741F076
:100CE00025543E4FF901408370933C0260933B02D0
:100CF000FF91EF91BF91AF919F918F917F916F91F4
:100D00005F914F913F912F910F900FBE0F901F90C9
:100D100018958F929F92AF92BF92DF92EF92FF92BF
:100D20000F931F93CF93DF93EC017A018B01413432
:100D300082E458078FE0680780E078070CF07FC0F6
:100D400060E874E88EE190E0A80197010E94D50A5E
:100D5000CA01B901615070408040904022E030E00B
:100D600040E050E00E94D50A49015A01A5019401D2
:100D7000209530954095509594E0220F331F441FE5
:100D8000551F9A95D1F760E074E284EF90E00E94DD
:100D9000D50ACA01B9012FEF30E040E050E00E94CF
:100DA000810AA80197010E94D50AC90121503F4F2D
:100DB000121613061CF4D82EDA9403C0DD24D39443
:100DC000D81A60E079E08DE390E0A80197010E94D5
:100DD000D50ACA01B901615070408040904022E0BC
:100DE00030E040E050E00E94D50A209530954095D3
:100DF000509583E0220F331F441F551F8A95D1F76A
:100E000060E074E284EF90E00E94D50ACA01B90163
:100E10002FEF30E040E050E00E94810AA8019701E6
:100E20000E94D50AC90121503F4F121613061CF427
:100E3000282F215002C021E0281B2D1500F5E88540
:100E4000F98581E090E00A8802C0880F991F0A9412
:100E5000E2F7808360E079E08DE390E0A8019701FC
:100E60000E94D50ACA01B90161507040804090408B
:100E700022E030E040E050E00E94D50A04C0E8855E
:100E8000F98510829401EC81FD813083EE81FF8130
:100E90002083EA85FB85808121E030E0A9010E8472
:100EA00002C0440F551F0A94E2F7842B8083EA8521
:100EB000FB858081A9010F8402C0440F551F0A944D
:100EC000E2F7842B8083EA85FB858081088802C055
:100ED000220F331F0A94E2F7822B8083DF91CF9198
:100EE0001F910F91FF90EF90DF90BF90AF909F9078
:100EF0008F900895FC0122813381F901E058FF4F62
:100F00008081918180589F4F2E573F4FF90120815A
:100F10003181821B930B60E870E00E94A00A089563
:100F2000DC0112962D913C911397F901EE57FF4F7A
:100F300080819181D901A058BF4F4D915C9111974B
:100F40004817590719F42FEF3FEF0CC0280F391F2E
:100F5000D9012C91019660E870E00E94A00A91836B
:100F6000808330E0C9010895FC01A085B185218905
:100F70008C9190E0022E02C0959587950A94E2F735
:100F800080FFF6CF0484F585E02D6083089587E91E
:100F900091E09093400280933F028BEB91E090931D
:100FA00042028093410285EC90E09093440280934A
:100FB000430284EC90E0909346028093450280ECDB
:100FC00090E0909348028093470281EC90E09093E8
:100FD0004A028093490286EC90E090934C02809301
:100FE0004B0284E080934D0283E080934E0287E0C1
:100FF00080934F0285E08093500281E080935102FC
:1010000008955058BB27AA270ED0D4C1C5D130F0BF
:10101000CAD120F031F49F3F11F41EF495C10EF4B3
:10102000E095E7FB8BC1E92FD6D180F3BA176207B1
:1010300073078407950718F071F49EF5EEC10EF45E
:10104000E0950B2EBA2FA02D0B01B90190010C01D8
:10105000CA01A0011124FF27591B99F0593F50F4F0
:10106000503E68F11A16F040A22F232F342F442748
:10107000585FF3CF469537952795A795F040539540
:10108000C9F77EF41F16BA0B620B730B840BBAF010
:101090009150A1F0FF0FBB1F661F771F881FC2F77B
:1010A0000EC0BA0F621F731F841F48F4879577958F
:1010B0006795B795F7959E3F08F0B3CF9395880F46
:1010C00008F09927EE0F97958795089565D158F008
:1010D00080E891E009F49EEF66D128F040E851E005
:1010E00059F45EEF09C030C198C1E92FE07873D19F
:1010F00068F3092E052AC1F3261737074807590751
:1011000038F00E2E07F8E02569F0E025E0640AC00B
:10111000EF6307F8009407FADB01B9019D01DC01D8
:10112000CA01AD01EF9343D045D10AD05F91552359
:1011300031F02BED3FE049E450FD49EC63CF0895D9
:10114000DF93DD27B92FBF7740E85FE31616170658
:1011500048075B0710F4D92F67D19F938F937F9334
:101160006F93CCD1E8E6F0E0F2D024D12F913F91FB
:101170004F915F916CD1DD2349F09058A2EA2AED9E
:101180003FE049EC5FE3D0785D274DDFDF9112C18E
:101190000CD010C108D140F0FFD030F021F45F3FF7
:1011A00019F0CCC051113AC1CFC015D198F3992391
:1011B000C9F35523B1F3951B550BBB27AA2762171B
:1011C0007307840738F09F5F5F4F220F331F441F60
:1011D000AA1FA9F333D00E2E3AF0E0E830D0915098
:1011E0005040E695001CCAF729D0FE2F27D0660F85
:1011F000771F881FBB1F261737074807AB07B0E8C4
:1012000009F0BB0B802DBF01FF2793585F4F2AF0D9
:101210009E3F510568F092C001C15F3FECF3983EDC
:10122000DCF3869577956795B795F7959F5FC9F736
:10123000880F911D9695879597F90895E1E0660FBF
:10124000771F881FBB1F621773078407BA0720F038
:10125000621B730B840BBA0BEE1F88F7E0950895A1
:1012600004D06894B111DAC00895BDD088F09F57BA
:1012700090F0B92F9927B751A0F0D1F0660F771FE2
:10128000881F991F1AF0BA95C9F712C0B13081F0C2
:10129000C4D0B1E00895C1C0672F782F8827B85F08
:1012A00039F0B93FCCF3869577956795B395D9F723
:1012B0003EF490958095709561957F4F8F4F9F4F2D
:1012C0000895E89409C097FB3EF490958095709539
:1012D00061957F4F8F4F9F4F9923A9F0F92F96E982
:1012E000BB279395F695879577956795B795F111F7
:1012F000F8CFFAF4BB0F11F460FF1BC06F5F7F4F94
:101300008F4F9F4F16C0882311F096E911C07723A5
:1013100021F09EE8872F762F05C0662371F096E8AE
:10132000862F70E060E02AF09A95660F771F881F7D
:10133000DAF7880F9695879597F9089597F99F673B
:1013400080E870E060E008959FEF80EC0895DF93FF
:10135000CF931F930F93FF92EF92DF927B018C014B
:10136000689405C0DA2EEF0172D0FE01E894A591D1
:101370002591359145915591AEF3EF0154DEFE0173
:101380009701A801DA9479F7DF90EF90FF900F9121
:101390001F91CF91DF91089500240A941616170625
:1013A00018060906089500240A9412161306140656
:1013B00005060895092E0394000C11F4882352F0B9
:1013C000BB0F40F4BF2B11F460FF04C06F5F7F4F71
:1013D0008F4F9F4F089557FD9058440F551F59F058
:1013E0005F3F71F04795880F97FB991F61F09F3F12
:1013F00079F087950895121613061406551FF2CF3B
:101400004695F1DF08C0161617061806991FF1CF8A
:1014100086957105610508940895E894BB276627B1
:101420007727CB0197F908959B01AC0160E070E04C
:1014300080E89FE3ADCE0BD0BDCFAEDF28F0B3DFA9
:1014400018F0952309F07ACF7FCF1124E7CFC3DFBF
:10145000A0F3959FD1F3950F50E0551F629FF001C7
:10146000729FBB27F00DB11D639FAA27F00DB11D20
:10147000AA1F649F6627B00DA11D661F829F2227A9
:10148000B00DA11D621F739FB00DA11D621F839F30
:10149000A00D611D221F749F3327A00D611D231F06
:1014A000849F600D211D822F762F6A2F11249F5754
:1014B00050408AF0E1F088234AF0EE0FFF1FBB1F77
:1014C000661F771F881F91505040A9F79E3F510516
:1014D00070F034CFA3CF5F3FECF3983EDCF38695FA
:1014E00077956795B795F795E7959F5FC1F7FE2BC1
:1014F000880F911D9695879597F908959B01AC01EA
:101500009ACF629FD001739FF001829FE00DF11D81
:10151000649FE00DF11D929FF00D839FF00D749F6D
:10152000F00D659FF00D9927729FB00DE11DF91F19
:10153000639FB00DE11DF91FBD01CF011124089576
:1015400097FB092E07260AD077FD04D049D006D094
:1015500000201AF4709561957F4F0895F6F79095E5
:1015600081959F4F0895A1E21A2EAA1BBB1BFD0176
:101570000DC0AA1FBB1FEE1FFF1FA217B307E40772
:10158000F50720F0A21BB30BE40BF50B661F771FCA
:10159000881F991F1A9469F76095709580959095AA
:1015A0009B01AC01BD01CF01089597FB092E0526D3
:1015B0000ED057FD04D0D7DF0AD0001C38F4509568
:1015C0004095309521953F4F4F4F5F4F0895F6F767
:1015D00090958095709561957F4F8F4F9F4F08959F
:1015E000AA1BBB1B51E107C0AA1FBB1FA617B70749
:1015F00010F0A61BB70B881F991F5A95A9F7809565
:101600009095BC01CD010895EE0FFF1F0590F49158
:08161000E02D0994F894FFCFCE
:1016180000000A000D00B80B0A0B0C0A00050004B4
:101628000066000C00580EAF089DAE0058BBBF08FE
:101638008808C7005808BF978D005805B70884A6C2
:1016480000581705AE0883AE00588C9ABF0058178B
:1016580009B7A000580593088808C5BA07990793E1
:1016680097B000581709B7A00898AE0883AE8C9AAF
:10167800BF00581709B7A0B70884A60EAF089DAEDB
:10168800005808BF978D9183BABF005808BF978D3F
:1016980094079BBF00581709B7A0B70884A60893FA
:0E16A800878E0000000000B4073C05550500C9
:00000001FF
