:100000000C9479000C94A1000C94A1000C94A10014
:100010000C94A1000C94A1000C94A1000C94A100DC
:100020000C94A1000C94A1000C94A1000C94A100CC
:100030000C94A1000C94A1000C94A1000C94A100BC
:100040000C9469020C94A1000C94ED030C94A10093
:100050000C94A1000C94A1000C94A1000C94A1009C
:100060000C94A1000C94A100084AD73B3BCE016E32
:1000700084BCBFFDC12F3D6C74319ABD56833DDAFF
:100080003D00C77F11BED9E4BB4C3E916BAAAABE0E
:10009000000000803F00000000240027002A00002C
:1000A000000000250028002B00000000002300268F
:1000B00000290004040404040404040202020202ED
:1000C000020303030303030102040810204080011C
:1000D000020408102001020408102000000007009C
:1000E0000201000003040600000000000000000000
:1000F000720511241FBECFEFD8E0DEBFCDBF11E0E7
:10010000A0E0B1E0E8EAF3E102C005900D92A83169
:10011000B107D9F711E0A8E1B1E001C01D92A63CFA
:10012000B107E1F710E0C2EFD0E004C02297FE0172
:100130000E94CE09C03FD107C9F70E9462020C9409
:10014000D2090C940000EF92FF920F931F93CF936C
:10015000DF938C01EB0181E0E82EF12C25C080912A
:100160000A0160E00E94510397010C2E02C0220F89
:10017000331F0A94E2F7C901802391238217930762
:1001800021F480910C0161E003C080910C0160E0DA
:100190000E94510380910A0161E00E94510381E0B5
:1001A00090E00E94E9022197D7FFD9CFDF91CF914C
:1001B0001F910F91FF90EF90089580910C0161E0E5
:1001C0000E94310380910B0160E00E94510388E09E
:1001D00090E063E070E00E94A30080910B0161E079
:1001E0000E945103089580910C0161E00E94310347
:1001F00080910B0160E00E94510380E090E063E099
:1002000070E00E94A30080910B0161E00E94510305
:1002100008950F931F93CF93DF93182F092F809189
:100220000C0160E00E943103212F302FC901EC0145
:1002300000E010E021C080910A0161E00E945103BA
:1002400081E090E00E94E90280910C010E949E03EF
:100250009801220F331F019721F489010F5F1F4F6F
:1002600001C0890180910A0160E00E94510381E090
:1002700090E00E94E9022197D7FFDDCF13FD186FB0
:10028000C801DF91CF911F910F91089580910C01CA
:1002900061E00E94310380910B0160E00E945103F4
:1002A0008CE090E063E070E00E94A30083E090E0C7
:1002B0000E940901089580911E0190911F01892BD0
:1002C00021F10E94B1022091180130911901409151
:1002D0001A0150911B01621B730B840B950B20912B
:1002E000080130910901442737FD4095542F261706
:1002F00037074807590748F480911C0160E00E94C5
:10030000510310921F0110921E0108950F931F9325
:10031000182F092F80911C0160E00E945103812F4A
:1003200061E00E94510310931C0100931D010E9483
:10033000B102609318017093190180931A01909390
:100340001B0181E090E090931F0180931E011F919B
:100350000F9108951F9383EB91E00E94230588235A
:1003600021F183EB91E00E943705182F282F30E010
:1003700027553040809100019091010128173907DD
:1003800054F08091060190910701821793071CF0A9
:10039000C9010E948601153641F4609124017091D3
:1003A000250183EB91E00E94B9061F910895EF9219
:1003B000FF920F931F930E94AA010E945B010E946B
:1003C000DD0068E270E080E090E00E94BF020E94E1
:1003D00046018BE090E00E940901909321018093F7
:1003E00020018BE090E00E9409019093230180930B
:1003F000220180910B0161E00E9451036091220172
:1004000070912301709561957F4F882777FD8095C6
:10041000982F0E942B087B018C0160912001709124
:100420002101882777FD8095982F0E942B089B013A
:10043000AC01C801B7010E943D072BED3FE049E444
:1004400050E40E94900720E030E044E353E40E942F
:10045000E3080E94F80770932501609324011F911F
:100460000F91FF90EF9008958091000161E00E944C
:1004700031038091020161E00E9431038091040107
:1004800061E00E9431038091060161E00E94310326
:1004900083EB91E040E855E260E070E00E942A04BE
:1004A00080910B0161E00E94310380910A0161E0BB
:1004B0000E94310380910C0160E00E9431030E9490
:1004C000F30008950E94F7020E9434020E94D701AF
:1004D000FDCF1F920F920FB60F9211242F933F93CF
:1004E0008F939F93AF93BF9380912A0190912B019B
:1004F000A0912C01B0912D0130912E010196A11DEA
:10050000B11D232F2D5F2D3720F02D570196A11DF2
:10051000B11D20932E0180932A0190932B01A0936B
:100520002C01B0932D018091260190912701A0917B
:100530002801B09129010196A11DB11D80932601CA
:1005400090932701A0932801B0932901BF91AF9107
:100550009F918F913F912F910F900FBE0F901F9001
:1005600018958FB7F89420912A0130912B01409172
:100570002C0150912D018FBFB901CA010895EF924E
:10058000FF920F931F937B018C018FB7F8944091DA
:100590002A0150912B0160912C0170912D018FBF88
:1005A0002FB7F89480912A0190912B01A0912C01F2
:1005B000B0912D012FBF841B950BA60BB70BE8162E
:1005C000F9060A071B0760F71F910F91FF90EF9044
:1005D0000895019759F0FC01EE0FFF1FEE0FFF1F6A
:1005E00032978FB7F8943197F1F78FBF08957894C9
:1005F00084B5826084BD84B5816084BD85B5826028
:1006000085BD85B5816085BDEEE6F0E080818160C5
:100610008083E1E8F0E08081826080838081816076
:100620008083E0E8F0E0808181608083E1EBF0E0AE
:10063000808184608083E0EBF0E080818160808352
:10064000EAE7F0E08081846080838081826080833B
:100650008081816080838081806880831092C10066
:100660000895282F30E0C90189539F4FFC019491D0
:100670002D543F4FF9018491882391F0E82FF0E049
:10068000EE0FFF1FEB56FF4FA591B491662329F49F
:100690008C91909589238C9308958C91892B8C93C0
:1006A0000895482F50E0CA0185529F4FFC012491C4
:1006B000CA0189539F4FFC0194914D545F4FFA0139
:1006C00034913323D1F1222331F1233021F480916D
:1006D00080008F7705C0243031F4809180008F7DB9
:1006E0008093800018C0213019F484B58F7704C03E
:1006F000223021F484B58F7D84BD0DC0263021F4D5
:100700008091B0008F7705C0273029F48091B00028
:100710008F7D8093B000E32FF0E0EE0FFF1FE156D6
:10072000FF4FA591B491662329F48C91909589236C
:100730008C9308958C91892B8C930895682F70E089
:10074000CB0185529F4FFC012491CB0189539F4FD0
:10075000FC0144916D547F4FFB019491992319F44E
:1007600020E030E038C0222331F1233021F48091A1
:1007700080008F7705C0243031F4809180008F7D18
:100780008093800018C0213019F484B58F7704C09D
:10079000223021F484B58F7D84BD0DC0263021F434
:1007A0008091B0008F7705C0273029F48091B00088
:1007B0008F7D8093B000892F90E0880F991F875517
:1007C0009F4FFC01A591B4918C9120E030E08423EF
:1007D00011F021E030E0C90108951F920F920FB689
:1007E0000F9211242F933F934F935F936F937F93B7
:1007F0008F939F93AF93BF93EF93FF934091C60066
:10080000E091AF01F091B001CF01019660E870E096
:100810000E9468099C018091B1019091B201281752
:10082000390739F0E15DFE4F40833093B0012093EA
:10083000AF01FF91EF91BF91AF919F918F917F9108
:100840006F915F914F913F912F910F900FBE0F903D
:100850001F9018955F926F927F928F929F92AF92A6
:10086000BF92CF92DF92EF92FF920F931F93CF939D
:10087000DF93EC013A014B01413482E458078FE0E9
:10088000680780E078070CF07FC060E874E88EE1CC
:1008900090E0A40193010E949D0921503040404006
:1008A0005040CA01B90122E030E040E050E00E942F
:1008B0009D0959016A01A601950120953095409541
:1008C000509594E0220F331F441F551F9A95D1F77E
:1008D00060E074E284EF90E00E949D09CA01B901D2
:1008E0002FEF30E040E050E00E944909A40193015D
:1008F0000E949D09C90181509F4F181619061CF4CA
:10090000522E5A9403C055245394521A60E079E051
:100910008DE390E0A40193010E949D092150304095
:1009200040405040CA01B90122E030E040E050E0D0
:100930000E949D09209530954095509583E0220FA7
:10094000331F441F551F8A95D1F760E074E284EF8E
:1009500090E00E949D09CA01B9012FEF30E040E00C
:1009600050E00E944909A40193010E949D09C90118
:1009700081509F4F181619061CF4822F815002C017
:1009800081E0821B851500F5E885F98581E090E01E
:100990000A8802C0880F991F0A94E2F7808360E0FA
:1009A00079E08DE390E0A40193010E949D0921501C
:1009B000304040405040CA01B90122E030E040E000
:1009C00050E00E949D0904C0E885F98510829501D8
:1009D000EC81FD813083EE81FF812083EA85FB85F8
:1009E000208141E050E0CA010E8402C0880F991FA7
:1009F0000A94E2F7282B2083EA85FB852081CA012F
:100A00000F8402C0880F991F0A94E2F7282B2083D5
:100A1000EA85FB858081088802C0440F551F0A942F
:100A2000E2F7842B8083DF91CF911F910F91FF908C
:100A3000EF90DF90CF90BF90AF909F908F907F907E
:100A40006F905F900895DC011296ED91FC911397E1
:100A5000E058FF4F8191919180589F4F20813181C3
:100A6000821B930B60E870E00E9468090895CF93A1
:100A7000DF93DC011296ED91FC911397EF01CE57B5
:100A8000DF4F48815981E058FF4F80819181E058C4
:100A9000F0408417950719F42FEF3FEF0CC0E40FD7
:100AA000F51F2081CA01019660E870E00E94680984
:100AB0009983888330E0C901DF91CF910895FC01CB
:100AC000A085B18521898C9190E0022E02C0959578
:100AD00087950A94E2F780FFF6CF0484F585E02D30
:100AE0006083089581E191E09093B4018093B30114
:100AF0008FE291E09093B6018093B50185EC90E090
:100B00009093B8018093B70184EC90E09093BA0180
:100B10008093B90180EC90E09093BC018093BB017D
:100B200081EC90E09093BE018093BD0186EC90E053
:100B30009093C0018093BF0184E08093C10183E062
:100B40008093C20187E08093C30185E08093C40154
:100B500081E08093C50108950F931F93CF93DF9396
:100B60008C01EB0109C02196D801ED91FC91019017
:100B7000F081E02DC801099568816623A1F7DF9116
:100B8000CF911F910F910895EF92FF920F931F93B2
:100B9000CF93DF938C017B01EA010CC0D7016D91EB
:100BA0007D01D801ED91FC910190F081E02DC8010B
:100BB00009952197209791F7DF91CF911F910F9180
:100BC000FF90EF9008950F931F938C01DC01ED913E
:100BD000FC910190F081E02D6DE00995D801ED9137
:100BE000FC910190F081E02DC8016AE009951F9108
:100BF0000F9108952F923F924F925F926F927F9242
:100C00008F929F92AF92BF92CF92DF92EF92FF921C
:100C10000F931F93DF93CF93CDB7DEB7A0970FB697
:100C2000F894DEBF0FBECDBF1C016A017B014115E8
:100C300051056105710549F4DC01ED91FC910190CC
:100C4000F081E02D60E3099554C088249924540173
:100C5000422E55246624772401E010E00C0F1D1F5E
:100C6000080D191DC701B601A30192010E947B095D
:100C7000F80160830894811C911CA11CB11CC70160
:100C8000B601A30192010E947B09C901DA016C013E
:100C90007D01C114D104E104F104F1F681E0E82EF4
:100CA000F12CEC0EFD1EE80CF91C3E010894611CB1
:100CB000711CD501C4010197A109B1096C01C818C3
:100CC000D90814C0F601EE0DFF1D60816A3010F4E2
:100CD000605D01C0695CD101ED91FC910190F081F2
:100CE000E02DC10109950894E108F1086E147F0414
:100CF00049F7A0960FB6F894DEBF0FBECDBFCF91D7
:100D0000DF911F910F91FF90EF90DF90CF90BF90F8
:100D1000AF909F908F907F906F905F904F903F909B
:100D20002F900895EF92FF920F931F93CF93DF932D
:100D3000EC017A018B0177FF0FC0E881F981019006
:100D4000F081E02D6DE2099510950095F094E09406
:100D5000E11CF11C011D111DCE01B801A7012AE003
:100D60000E94FA05DF91CF911F910F91FF90EF90B4
:100D700008950F931F938C01AB01662757FD609573
:100D8000762F0E949206C8010E94E3051F910F91E1
:100D900008955058BB27AA270ED0D4C1C5D130F032
:100DA000CAD120F031F49F3F11F41EF495C10EF426
:100DB000E095E7FB8BC1E92FD6D180F3BA17620724
:100DC00073078407950718F071F49EF5EEC10EF4D1
:100DD000E0950B2EBA2FA02D0B01B90190010C014B
:100DE000CA01A0011124FF27591B99F0593F50F463
:100DF000503E68F11A16F040A22F232F342F4427BB
:100E0000585FF3CF469537952795A795F0405395B2
:100E1000C9F77EF41F16BA0B620B730B840BBAF082
:100E20009150A1F0FF0FBB1F661F771F881FC2F7ED
:100E30000EC0BA0F621F731F841F48F48795779501
:100E40006795B795F7959E3F08F0B3CF9395880FB8
:100E500008F09927EE0F97958795089565D158F07A
:100E600080E891E009F49EEF66D128F040E851E077
:100E700059F45EEF09C030C198C1E92FE07873D111
:100E800068F3092E052AC1F32617370748075907C3
:100E900038F00E2E07F8E02569F0E025E0640AC07E
:100EA000EF6307F8009407FADB01B9019D01DC014B
:100EB000CA01AD01EF9343D045D10AD05F915523CC
:100EC00031F02BED3FE049E450FD49EC63CF08954C
:100ED000DF93DD27B92FBF7740E85FE316161706CB
:100EE00048075B0710F4D92F67D19F938F937F93A7
:100EF0006F93CCD1E8E6F0E0F2D024D12F913F916E
:100F00004F915F916CD1DD2349F09058A2EA2AED10
:100F10003FE049EC5FE3D0785D274DDFDF9112C100
:100F20000CD010C108D140F0FFD030F021F45F3F69
:100F300019F0CCC051113AC1CFC015D198F3992303
:100F4000C9F35523B1F3951B550BBB27AA2762178D
:100F50007307840738F09F5F5F4F220F331F441FD2
:100F6000AA1FA9F333D00E2E3AF0E0E830D091500A
:100F70005040E695001CCAF729D0FE2F27D0660FF7
:100F8000771F881FBB1F261737074807AB07B0E836
:100F900009F0BB0B802DBF01FF2793585F4F2AF04C
:100FA0009E3F510568F092C001C15F3FECF3983E4F
:100FB000DCF3869577956795B795F7959F5FC9F7A9
:100FC000880F911D9695879597F90895E1E0660F32
:100FD000771F881FBB1F621773078407BA0720F0AB
:100FE000621B730B840BBA0BEE1F88F7E095089514
:100FF00004D06894B111DAC00895BDD088F09F572D
:1010000090F0B92F9927B751A0F0D1F0660F771F54
:10101000881F991F1AF0BA95C9F712C0B13081F034
:10102000C4D0B1E00895C1C0672F782F8827B85F7A
:1010300039F0B93FCCF3869577956795B395D9F795
:101040003EF490958095709561957F4F8F4F9F4F9F
:101050000895E89409C097FB3EF4909580957095AB
:1010600061957F4F8F4F9F4F9923A9F0F92F96E9F4
:10107000BB279395F695879577956795B795F11169
:10108000F8CFFAF4BB0F11F460FF1BC06F5F7F4F06
:101090008F4F9F4F16C0882311F096E911C0772318
:1010A00021F09EE8872F762F05C0662371F096E821
:1010B000862F70E060E02AF09A95660F771F881FF0
:1010C000DAF7880F9695879597F9089597F99F67AE
:1010D00080E870E060E008959FEF80EC0895DF9372
:1010E000CF931F930F93FF92EF92DF927B018C01BE
:1010F000689405C0DA2EEF0172D0FE01E894A59144
:101100002591359145915591AEF3EF0154DEFE01E5
:101110009701A801DA9479F7DF90EF90FF900F9193
:101120001F91CF91DF91089500240A941616170697
:1011300018060906089500240A94121613061406C8
:1011400005060895092E0394000C11F4882352F02B
:10115000BB0F40F4BF2B11F460FF04C06F5F7F4FE3
:101160008F4F9F4F089557FD9058440F551F59F0CA
:101170005F3F71F04795880F97FB991F61F09F3F84
:1011800079F087950895121613061406551FF2CFAD
:101190004695F1DF08C0161617061806991FF1CFFD
:1011A00086957105610508940895E894BB27662724
:1011B0007727CB0197F908959B01AC0160E070E0BF
:1011C00080E89FE3ADCE0BD0BDCFAEDF28F0B3DF1C
:1011D00018F0952309F07ACF7FCF1124E7CFC3DF32
:1011E000A0F3959FD1F3950F50E0551F629FF0013A
:1011F000729FBB27F00DB11D639FAA27F00DB11D93
:10120000AA1F649F6627B00DA11D661F829F22271B
:10121000B00DA11D621F739FB00DA11D621F839FA2
:10122000A00D611D221F749F3327A00D611D231F78
:10123000849F600D211D822F762F6A2F11249F57C6
:1012400050408AF0E1F088234AF0EE0FFF1FBB1FE9
:10125000661F771F881F91505040A9F79E3F510588
:1012600070F034CFA3CF5F3FECF3983EDCF386956C
:1012700077956795B795F795E7959F5FC1F7FE2B33
:10128000880F911D9695879597F908959B01AC015C
:101290009ACF629FD001739FF001829FE00DF11DF4
:1012A000649FE00DF11D929FF00D839FF00D749FE0
:1012B000F00D659FF00D9927729FB00DE11DF91F8C
:1012C000639FB00DE11DF91FBD01CF0111240895E9
:1012D00097FB092E07260AD077FD04D049D006D007
:1012E00000201AF4709561957F4F0895F6F7909558
:1012F00081959F4F0895A1E21A2EAA1BBB1BFD01E9
:101300000DC0AA1FBB1FEE1FFF1FA217B307E407E4
:10131000F50720F0A21BB30BE40BF50B661F771F3C
:10132000881F991F1A9469F760957095809590951C
:101330009B01AC01BD01CF01089597FB092E052645
:101340000ED057FD04D0D7DF0AD0001C38F45095DA
:101350004095309521953F4F4F4F5F4F0895F6F7D9
:1013600090958095709561957F4F8F4F9F4F089511
:10137000AA1BBB1B51E107C0AA1FBB1FA617B707BB
:1013800010F0A61BB70B881F991F5A95A9F78095D7
:101390009095BC01CD010895EE0FFF1F0590F491CB
:0813A000E02D0994F894FFCF41
:1013A8000A000B000C000D00B80B0708090000002C
:0813B800005F05AC05C405004F
:00000001FF
