:100000000C9478170C94A0170C94A0170C94A017BC
:100010000C94A0170C94A0170C94A0170C94A01784
:100020000C94A0170C94A0170C94A0170C94A01774
:100030000C94A0170C94A0170C94A0170C94A01764
:100040000C94521C0C94A0170C94E01E0C94A01756
:100050000C94A0170C94A0170C94A0170C94A01744
:100060000C94A0170C94A017084AD73B3BCE016E06
:1000700084BCBFFDC12F3D6C74319ABD56833DDAFF
:100080003D00C77F11BED9E4BB4C3E916BAAAABE0E
:10009000000000803F8040000000000000000000E1
:1000A0000000000000000000000000000000000050
:1000B0000000000000000000000000000000000040
:1000C0000000000000000000000000000000000030
:1000D0000000000000000000000000000000000020
:1000E0000000000000000000000000000000000010
:1000F0000000000000000000000000000000000000
:1001000000000000000000000000000000000000EF
:1001100000000000000000000000000000000000DF
:1001200000000000000000000000000000000000CF
:1001300000000000000000000000000000000000BF
:1001400000000000000000000000000000000000AF
:10015000000000000000000000000000000000009F
:10016000000000000000000000000000000000008F
:10017000000000000000000000000000000000007F
:10018000000000000000000000000000000000006F
:10019000000000000000000000000000000000005F
:1001A000000000000080808080808080808080004F
:1001B000000000000000000000000000000000003F
:1001C000000000000000000000000000000000002F
:1001D000000000000000000000000000008080809F
:1001E000808080808080808000000000000000000F
:1001F00000000000000000000000000000000000FF
:10020000000000000000000000000080808000006E
:1002100000000000000000000000000000000000DE
:10022000F0FCFEFF1F070303030303030303070F91
:100230000F000000000080C0E0F0F070707070F0FF
:10024000F0E0E08000003030FFFFFF303030303031
:100250000000000000000000000000FEFFFFFFC3E0
:10026000C3C3838383830707000000000080C0E0CE
:10027000F0F070707070F0F0E0E08000003030FF5F
:10028000FFFF303030303000000000FFFFFF000083
:10029000000000000000000000000000000000005E
:1002A0003FFFFFFFE080000000000303030383FF24
:1002B000FFFF00000000FFFFFFFF8C0C0C0C0C0C7C
:1002C0000F0F0F0F00000000FFFFFFC00000000035
:1002D0000000000000000000000000808101030316
:1002E000030707070FFFFFFFFC00000000FFFFFFF1
:1002F000FF8C0C0C0C0C0C0F0F0F0F00000000FFFC
:10030000FFFFC000000000000000001F1F1F0000D2
:1003100000000000000000000000000000000000DD
:100320000000010303070707070707070707070779
:100330000303000000000001030707070707070782
:100340000707070000000000030707070706060667
:10035000000000000000000000000007070707077A
:100360000707070707070703010000000000010354
:100370000707070707070707070700000000000334
:10038000070707070606060000000007070700002A
:10039000000000000000000000000000000000005D
:1003A000000000000000000000000000000000004D
:1003B000000000000000000000000000000000003D
:1003C000000000000000000000000000000000002D
:1003D000000000000000000000000000000000001D
:1003E000000000000000000000000000000000000D
:1003F00000000000000000000000000000000000FD
:1004000000000000000000000000000000000000EC
:1004100000000000000000000000000000000000DC
:1004200000000000000000000000000000000000CC
:1004300000000000000000000000000000000000BC
:1004400000000000000000000000000000000000AC
:10045000000000000000000000000000000000009C
:10046000000000000000000000000000000000008C
:10047000000000000000000000000000000000007C
:10048000000000000000000000000000000000006C
:100490000000000000000000000507207F000000B1
:1004A000000000005F00000007000700147F147FB9
:1004B00014242A7F2A1223130864623649552250D5
:1004C0000005030000001C2241000041221C00081E
:1004D0002A1C2A0808083E080800503000000808B6
:1004E000080808006060000020100804023E51491E
:1004F000453E00427F400042615149462141454B03
:10050000311814127F1027454545393C4A49493076
:1005100001710905033649494936064949291E0032
:10052000363600000056360000000814224114142C
:1005300014141441221408000201510906324979A9
:10054000413E7E1111117E7F494949363E4141416C
:10055000227F4141221C7F494949417F090901010C
:100560003E414151327F0808087F00417F41002011
:1005700040413F017F081422417F404040407F02BC
:1005800004027F7F0408107F3E4141413E7F0909FC
:1005900009063E4151215E7F0919294646494949CC
:1005A0003101017F01013F4040403F1F2040201F9B
:1005B0007F2018207F631408146303047804036108
:1005C0005149454300007F41410204081020414148
:1005D0007F0000040201020440404040400001024C
:1005E000040020545454787F4844443838444444E8
:1005F00020384444487F3854545418087E09010276
:10060000081454543C7F0804047800447D400020C2
:1006100040443D00007F10284400417F40007C049E
:100620001804787C0804047838444444387C141452
:100630001408081414187C7C080404084854545402
:1006400020043F4440203C4040207C1C2040201C93
:100650003C4030403C44281028440C5050503C440E
:1006600064544C44000836410000007F0000004103
:1006700036080008082A1C08081C2A0808804000C0
:10068000000000000000000000000000000000006A
:10069000000000000000000000000000000000005A
:1006A000000000000000000000000000000000004A
:1006B000000000000000000000000000000000003A
:1006C000000000000000000000000000000000002A
:1006D000000000000000000000000000000000001A
:1006E000000000000000000000000000000000000A
:1006F00000000000000000000000000000000000FA
:1007000000000000000000000000000000000000E9
:1007100000000000000000000000000000000000D9
:1007200000000000000000000000000000000000C9
:1007300000000000000000000000000000000000B9
:1007400000000000000000000000000000000000A9
:100750000000000000000000000000000000000099
:100760000000000000000000000000000000000089
:100770000000000000000000000000000000000079
:10078000000000000000000000000000000080E009
:10079000F0F8F8FC7E3E1E1E1E1E1E1E1E1E1E3E75
:1007A0003C7CFCF80000000000000080E0F0F8F85D
:1007B000FC7E3E1E1E1E1E1E1E1E1E3E7EFCF8F8E9
:1007C000F0E080000000000000000000FCFCFCFCE9
:1007D0000000000000000000000000FCFCFCFC0029
:1007E00000000000000000000000FCFCFCFC000019
:1007F00000000000000000000000000000000000F9
:1008000000000000000000000000000000FEFFFFEC
:10081000FFFF030000000000000000808080808057
:1008200080808080800000000000FEFFFFFFFF034B
:10083000000000000000000000000000000003FFB6
:10084000FFFFFFFE0000000000000000FFFFFFFFB1
:100850000000000000000000000000FFFFFFFF009C
:1008600000000000000000000000FFFFFFFF00008C
:100870000000000000000000000000000000000078
:10088000000000000000000000000000003FFFFF2B
:10089000FFFFE080000000000000000303030303EB
:1008A00003FFFFFFFF00000000003FFFFFFFFFE02E
:1008B0008000000000000000000000000080E0FF59
:1008C000FFFFFF3F00000000000000001F1F1F1F70
:1008D00000000000000000000000001F1F1F1F009C
:1008E000000000000000000000001F1F1F1F00008C
:1008F00000000000000000000000000000000000F8
:1009000000000000000000000000000000000003E4
:10091000070F0F1F1F3E3C3C3C3C3C3C3C3C3C3CDE
:100920003E1F1F1F0F0000000000000003070F0FF5
:100930001F3F3E3C3C3C3C3C3C3C3C3E3F1F0F0F81
:100940000703000000000000000000003E3E3E3EA5
:1009500000000000000000000000003E3E3E3E009F
:10096000000000000000000000003E3E3E3E00008F
:100970000000000000000000000000000000000077
:100980000000000000000000000000000000000067
:100990000000000000000000000000000000000057
:1009A0000000000000000000000000000000000047
:1009B0000000000000000000000000000000000037
:1009C0000000000000000000000000000000000027
:1009D0000000000000000000000000000000000017
:1009E0000000000000000000000000000000000007
:1009F00000000000000000000000000000000000F7
:100A000000000000000000000000000000000000E6
:100A100000000000000000000000000000000000D6
:100A200000000000000000000000000000000000C6
:100A300000000000000000000000000000000000B6
:100A400000000000000000000000000000000000A6
:100A50000000000000000000000000000000000096
:100A60000000000000000000000000000000000086
:100A700000000000000000000000000000000080F6
:100A80004000000000000000000000000000000026
:100A90000000000000000000000000000000000056
:100AA0000000000000000000000000000000000046
:100AB0000000000000000000000000000000000036
:100AC0000000000000000000000000000000000026
:100AD0000000000000000000000000000000000016
:100AE0000000000000000000000000000000000006
:100AF00000000000000000000000000000000000F6
:100B000000000000000000000000000000000000E5
:100B100000000000000000000000000000000000D5
:100B200000000000000000000000000000000000C5
:100B300000000000000000000000000000000000B5
:100B400000000000000000000000000000000000A5
:100B50000000000000000000000000000000000095
:100B60000000000000000000000000000000000085
:100B70000000000000000000000000000000000075
:100B80000000000000000000000000000000000065
:100B90000000000000000000000000000000000055
:100BA0000000000000000000000000000000000045
:100BB0000000000000000000000000000000000035
:100BC0000000000000000000000000000000000025
:100BD0000000000000000000000000000000000015
:100BE0000000000000000000000000000000000005
:100BF00000000000000000000000000000000000F5
:100C0000000000000000FEFE0606060E0E0E1E1E70
:100C1000FCF8F000000000FEFE06060606060606CA
:100C2000060000000000C0F0FE7E1E7EFEF0C00048
:100C300000000000FEFE0606060E0E0E1E1EFCF84C
:100C4000F000000000FEFE3EFEFCE0800080E0FCC4
:100C5000FE3EFEFE00000000FEFE0606060606063C
:100C600006060000000000C0F0FE7E1E7EFEF0C002
:100C700000060606060606FEFE0606060606060030
:100C8000000000000000FFFF808080C0C0C0E0E0E6
:100C9000FF7F3F00000000FFFF8383838383838304
:100CA000800000C0F0FE7F1F1B1818181B1F7FFE5E
:100CB000F0C00000FFFF808080C0C0C0E0E0FF7F88
:100CC0003F00000000FFFF0000071F3F3C3F1F07E1
:100CD0000000FFFF00000000FFFF83838383838306
:100CE00083800000C0F0FE7F1F1B1818181B1F7F99
:100CF000FEF0C000000000FFFF0000000000000048
:100D000000000000000001010101010101010101D9
:100D100000000000000000010101010101010101CA
:100D200001000001010100000000000000000001BE
:100D300001010000010101010101010101010000A7
:100D400000000000000101000000000000000000A1
:100D50000000010100000000010101010101010189
:100D6000010100000101010000000000000000007E
:100D7000010101000000000101000000000000006E
:100D80000000000000000000000000000000000063
:100D90000000000000000000000000000000000053
:100DA0000000000000000000000000000000000043
:100DB0000000000000000000000000000000000033
:100DC0000000000000000000000000000000000023
:100DD0000000000000000000000000000000000013
:100DE0000000000000000000000000000000000003
:100DF00000000000000000000000000000000000F3
:100E000000000000000000000000000000000000E2
:100E100000000000000000000000000000000000D2
:100E200000000000000000000000000000000000C2
:100E300000000000000000000000000000000000B2
:100E400000000000000000000000000000000000A2
:100E50000000000000000000000000000000000092
:100E60000000000000000000000000000000000082
:100E70000000000000000000000000000000000072
:100E800000804000000000000000000000000000A2
:100E90000000000000000000000000000000000052
:100EA0000000000000000000000000000000000042
:100EB0000000000000000000000000000000000032
:100EC0000000000000000000000000000000000022
:100ED0000000000000000000000000000000000012
:100EE0000000000000000000000000000000000002
:100EF00000000000000000000000000000000000F2
:100F000000000000000000000000000000000000E1
:100F100000000000000000000000000000000000D1
:100F200000000000000000000000000000000000C1
:100F300000000000000000000000000000000000B1
:100F400000000000000000000000000000000000A1
:100F50000000000000000000000000000000000091
:100F60000000000000000000000000000000000081
:100F70000000000000000000000000000000000071
:100F80000000000000000000000000008080808061
:100F90000000000000000080808080000000000051
:100FA00000008080808000000000808080000000C1
:100FB00000008080808080000000000000008080B1
:100FC0008000000000000080808080800000000021
:100FD0000000008080800000000000008080808091
:100FE0008080808080808080800000000000808081
:100FF0008080808080808080800000000000000071
:10100000000000000000000000000000077FFFFF5C
:10101000FCC0000000E0FEFF3F3FFFFEE0000000DC
:10102000C0FCFFFF7F0700000000FFFFFF00000083
:101030000000FFFFFF3FFFFEF8F0C0000000FFFFD1
:10104000FF000000000000FFFFFF3FFFFEF8F0C0C0
:10105000000000FFFFFF000000000000FFFFFF8115
:101060008181818181818181010000000000FFFF79
:10107000FF010101030303FFFFFFFE00000000006A
:101080000000000000000000000000000000077FDA
:10109000FFFFFCE0FEFF3F030000033FFFFEE0FC1C
:1010A000FFFF7F07000000000000FFFFFF000000BF
:1010B0000000FFFFFF0000030F1F7FFFFCF0FFFF9A
:1010C000FF000000000000FFFFFF0000030F1F7F74
:1010D000FFFCF0FFFFFF000000000000FFFFFF012A
:1010E0000101010101010101000000000000FFFFFA
:1010F000FF0606060F0F1F7FFFFBF1C080000000F8
:1011000000000000000000000000000000000000DF
:101110000707070707030000000000000307070791
:10112000070700000000000000000707070000009C
:10113000000007070700000000000001070707077D
:101140000700000000000007070700000000000083
:101150000107070707070000000000000707070650
:10116000060606060606060606000000000007073B
:101170000700000000000000010307070706000049
:10118000000000000000000000000000000000005F
:10119000000000000000000000000000000000004F
:1011A000000000000000000000000000000000003F
:1011B000000000000000000000000000000000002F
:1011C000000000000000000000000000000000001F
:1011D000000000000000000000000000000000000F
:1011E00000000000000000000000000000000000FF
:1011F00000000000000000000000000000000000EF
:1012000000000000000000000000000000000000DE
:1012100000000000000000000000000000000000CE
:1012200000000000000000000000000000000000BE
:1012300000000000000000000000000000000000AE
:10124000000000000000000000000000000000009E
:10125000000000000000000000000000000000008E
:10126000000000000000000000000000000000007E
:10127000000000000000000000000000000000006E
:10128000000000804000000000000000000000009E
:10129000000000000000000000000000000000004E
:1012A000000000000000000000000000000000003E
:1012B000000000000000000000000000000000002E
:1012C000000000000000000000000000000000001E
:1012D000000000000000000000000000000000000E
:1012E00000000000000000000000000000000000FE
:1012F00000000000000000000000000000000000EE
:1013000000000000000000000000000000000000DD
:1013100000000000000000000000000000000000CD
:1013200000000000000000000000000000000000BD
:1013300000000000000000000000000000000000AD
:10134000000000000000000000000000000000009D
:10135000000000000000000000000000000000008D
:10136000000000000000000000000000000000007D
:10137000000000000000000000000000000000006D
:10138000000000000000000000000000000000005D
:101390000000000000FFFFFFFF0000000000000051
:1013A000FFFFFFFF00000000000000000000000041
:1013B00000FFFFFFFF00000000000000FFFFFFFF35
:1013C0007FFFFFFFF8E00000000000E0F8FFFFFFF4
:1013D0007FFFFFFFFF0000000000000000FFFFFF95
:1013E000FF07070707070F0F0F1FFFFEFEFCF000A8
:1013F000000000000000FFFFFFFF000000000000F1
:1014000000000000000000000000000000000000DC
:101410000000000000FFFFFFFF00000000000000D0
:10142000FFFFFFFF000000000000000000000000C0
:1014300000FFFFFFFF00000000000000FFFFFFFFB4
:1014400000030F7FFFFFFFF8C0F8FFFFFF7F0F03D0
:1014500000FFFFFFFF0000000000000000FFFFFF93
:10146000FFC0C0C0C0C0E0E0E0F0FFFFFF7F1F0092
:10147000000000000000FFFFFFFF00000000000070
:10148000000000000000000000000000000000005C
:101490000000000000FFFFFFFF0000000000000050
:1014A0007FFFFFFFFEC0800000000000000080C042
:1014B000FEFFFFFF7F00000000000000FFFFFFFFB6
:1014C00000000000031F7F7F7F7F7F1F030000005D
:1014D00000FFFFFFFF0000000000000000FFFFFF13
:1014E000FF010101010101010101010000000000F3
:1014F00000000000000087878787000000000000D0
:1015000000000000000000000000000000000000DB
:1015100000000080F8FFFFFFFF0000000000000057
:1015200000010307070F0F0F0F0F0F0F0F0F0F0F04
:101530000707030100000000000000000F0F0F0F5D
:10154000000000000000000000000000000000009B
:10155000000F0F0F0F00000000000000000F0F0F22
:101560000F0000000000000000000000000000006C
:101570000000000000000F0F0F0F0000000000002F
:101580000000000000000000000000000000000E4D
:101590000F0F0F0F0F0F07030000000000000000E7
:1015A000000000000000000000000000000000003B
:1015B000000000000000000000000000000000002B
:1015C000000000000000000000000000000000001B
:1015D000000000000000000000000000000000000B
:1015E00000000000000000000000000000000000FB
:1015F00000000000000000000000000000000000EB
:1016000000000000000000000000000000000000DA
:1016100000000000000000000000000000000000CA
:1016200000000000000000000000000000000000BA
:1016300000000000000000000000000000000000AA
:10164000000000000000000000000000000000009A
:10165000000000000000000000000000000000008A
:10166000000000000000000000000000000000007A
:10167000000000000000000000000000000000006A
:10168000000000000080400000000000000000009A
:10169000000000000000000000000000C0C0C0C04A
:1016A000C0C0C0C0C0C0800000000000000000003A
:1016B00000000000000000000000000000808080AA
:1016C000000000000000000000000000000000001A
:1016D000000000000000008080800000000000008A
:1016E00000000000000000000000000000000000FA
:1016F00000000000000000000000000000000000EA
:1017000000000000000000000000000000000000D9
:10171000000000000000000000000000FFFFFF804C
:101720008080C1C1FFFFFF7F00000000E0F0F8F8FB
:101730007838383878F8F8F0C000001818FFFFFF44
:101740001818181818000038383838383838F8F8A9
:10175000F0E00000001818FFFFFF18181818180014
:10176000C0F0F0F87838383838F8F8F0E0000000C9
:101770000000000000000000000000000000000069
:101780000000000000000000000000000000000059
:10179000000000000000000000000000FFFFFF014B
:1017A000010303071F7FFEFCF0E080007FFFFFFFC7
:1017B000E0C0C0C0E0FFFFFF3F00000000FFFFFFF0
:1017C000E0C080808000FEFEFFFFC7C7C7E3FFFFC9
:1017D000FFFF0000000000FFFFFFE0C080808000EE
:1017E0003FFFFFFFE6C6C6C6C6C7C7C70700000063
:1017F00000000000000000000000000000000000E9
:1018000000000000000000000000000000000000D8
:1018100000000000000000000000000001010100C5
:1018200000000000000000010101010000000101B2
:10183000010101010101010000000000000001019F
:10184000010101010100000101010101010100018B
:10185000010100000000000001010101010101007F
:10186000000000010101010101010101000000006F
:101870000000000000000000000000000000000068
:101880000000000000000000000000000000000058
:10189000000000000000000000000000C0C0C00008
:1018A0000000000000000000000000000000000038
:1018B0000000000000000000000000C0E0E0E0E0E8
:1018C00060600080808000000000000000000000D8
:1018D0000000000000000000000000000000000008
:1018E00000000000000000000000000000000000F8
:1018F00000000000000000000000000000000000E8
:1019000000000000000000000000000000000000D7
:10191000000000000000000000000000FFFFFF00CA
:10192000000000000000000000C0F0F0F878383837
:101930003838F8F8F0E00000001818FFFFFF1B1817
:10194000181818FFFFFF18181818180000000000DA
:101950000000000000000000000000000000000087
:101960000000000000000000000000000000000077
:101970000000000000000000000000000000000067
:101980000000000000000000000000000000000057
:10199000000000000000000000000000FFFFFF80CA
:1019A0008080808080808080003FFFFFFFE6C6C689
:1019B000C6C6C7C7C7070000000000FFFFFF000042
:1019C000000000FFFFFFE0C08080800000000000FA
:1019D0000000000000000000000000000000000007
:1019E00000000000000000000000000000000000F7
:1019F00000000000000000000000000000000000E7
:101A000000000000000000000000000000000000D6
:101A100000000000000000000000000001010101C2
:101A200001010101010101010000000001010101AA
:101A3000010101010100000000000001010100009E
:101A4000000000000101010101010100000000008F
:101A50000000000000000000000000000000000086
:101A60000000000000000000000000000000000076
:101A70000000000000000000000000000000000066
:101A80000000000000000080400000000000000096
:101A90000000000000000000000000000000C0C0C6
:101AA000C0C0C0C0C0C0C0C08000000000000000B6
:101AB00000000000000000000000000000000080A6
:101AC0008080000000000000000000000000000016
:101AD0000000000000000000008080800000000086
:101AE00000000000000000000000000000000000F6
:101AF00000000000000000000000000000000000E6
:101B000000000000000000000000000000000000D5
:101B10000000000000000000000000000000FFFFC7
:101B2000FF808080C1C1FFFFFF7F00000000E0F068
:101B3000F8F87838383878F8F8F0C000001818FF4E
:101B4000FFFF181818181800003838383838383897
:101B5000F8F8F0E00000001818FFFFFF1818181838
:101B60001800C0F0F0F87838383838F8F8F0E000AD
:101B70000000000000000000000000000000000065
:101B80000000000000000000000000000000000055
:101B90000000000000000000000000000000FFFF47
:101BA000FF01010303071F7FFEFCF0E080007FFFC1
:101BB000FFFFE0C0C0C0E0FFFFFF3F00000000FFEC
:101BC000FFFFE0C080808000FEFEFFFFC7C7C7E3C5
:101BD000FFFFFFFF0000000000FFFFFFE0C080806C
:101BE00080003FFFFFFFE6C6C6C6C6C7C7C70700DF
:101BF00000000000000000000000000000000000E5
:101C000000000000000000000000000000000000D4
:101C100000000000000000000000000000000101C2
:101C200001000000000000000001010101000000AF
:101C3000010101010101010101000000000000009B
:101C40000101010101010100000101010101010186
:101C5000000101010000000000000101010101017B
:101C6000010000000001010101010101010100006A
:101C70000000000000000000000000000000000064
:101C80000000000000000000000000000000000054
:101C90000000000000000000000000000000C0C0C4
:101CA000C0C0C0C0C0C0C0C08000000000000000B4
:101CB000E0E0E00000000000000000000000000084
:101CC0000000000000000000E0E0E0000000000074
:101CD0000000000000000000808080000000000084
:101CE00000000000000000000000000000000000F4
:101CF00000000000000000000000000000000000E4
:101D000000000000000000000000000000000000D3
:101D10000000000000000000000000000000FFFFC5
:101D2000FF808080C1C1FFFFFF7F00000000000036
:101D3000F8F8F8000000E0F0F8F87838383878F073
:101D4000F8F8F80000000000FFFFFFF0783838389E
:101D5000F8F8F8E000001818FFFFFF181818181816
:101D60000000000000000000000000000000000073
:101D70000000000000000000000000000000000063
:101D80000000000000000000000000000000000053
:101D90000000000000000000000000000000FFFF45
:101DA000FF01010303071F7FFEFCF0E0800000003D
:101DB000FFFFFF0000007FFFFFFFE0C0C0C0E0FFAB
:101DC000FFFFFF0000000000FFFFFF030000000016
:101DD00001FFFFFF00000000FFFFFFE0C0808080E8
:101DE00000000000000000000000000000000000F3
:101DF00000000000000000000000000000000000E3
:101E000000000000000000000000000000000000D2
:101E100000000000000000000000000000000101C0
:101E200001000000000000000001010101000000AD
:101E300001010100000000003939393939393D3FCD
:101E40003F1F0F0000000000010101000000000022
:101E50000001010100000000000101010101010178
:101E60000000000000000000000000000000000072
:101E70000000000000000000000000000000000062
:101E80000000000000000000008040000000000092
:101E900000000000000000C0C0C0C0000000000042
:101EA00000C0C0C0C0000000000000C0C0C0C00032
:101EB0000000000000000000000000000000000022
:101EC000E0E0E000000000E0E0E0000000000000D2
:101ED0000000000000000000000000000000000002
:101EE00000000000000000000000000000000000F2
:101EF00000000000000000000000000000000000E2
:101F000000000000000000000000000000000000D1
:101F100000000000000000033FFFFFFEE00000F0B3
:101F2000FFFF1F1FFFFFF00000E0FEFFFF3F030069
:101F300038383838383838F8F8F0E0000000000059
:101F4000FFFFFF00000000FFFFFFC0C0E0F0F8F857
:101F500078381808000000000000000000000000B1
:101F60000000000000000000000000000000000071
:101F70000000000000000000000000000000000061
:101F80000000000000000000000000000000000051
:101F9000000000000000000000033FFFFFFEFFFF05
:101FA0001F010000011FFFFFFEFFFF3F030000FEB7
:101FB000FEFFFFC7C7C7E3FFFFFFFF0000000000F1
:101FC000FFFFFF00000000FFFFFF1F3F7FFDF9F054
:101FD000E0C08000000000000000000000000000E1
:101FE00000000000000000000000000000000000F1
:101FF00000000000000000000000000000000000E1
:1020000000000000000000000000000000000000D0
:1020100000000000000000000000000101010101BB
:1020200000000000000001010101010000000000AB
:102030000101010101010100010101000000000096
:102040000101010000000001010100000000010188
:10205000010101010000000000000000000000007C
:102060000000000000000000000000000000000070
:102070000000000000000000000000000000000060
:102080000000000000000000000000000000000050
:102090000000000000000000C0C0C0C0C0C0C0C040
:1020A000C0C0C000000000000000000000000000F0
:1020B0000000000000000000000000000000000020
:1020C0000000000000000000000000000000000010
:1020D0000000000000000000000000000000000000
:1020E00000000000000000000000000000000000F0
:1020F00000000000000000000000E0E0E000000040
:1021000000000000000000000000000000000000CF
:102110000000000000000000FFFFFFC0C0C0C0C002
:10212000C0C0000000E0F0F8F87838383878F8F8E7
:10213000F0C000000000F8F8F8F078383818000017
:1021400078F8F8F8C00080F8F8F8F8F88000C0F8DF
:10215000F8F87800000038383838383838F8F8F0AF
:10216000E00000000000F8F8F8F0783838180000B7
:10217000E0F0F8F87838383878F0FFFFFF0000001A
:10218000000000000000000000000000000000004F
:102190000000000000000000FFFFFF000000000042
:1021A00000000000007FFFFFFFE0C0C0C0E0FFFFB5
:1021B000FF3F00000000FFFFFF03000000000000E1
:1021C00000077FFFFFFCFF7F0700077FFFFCFFFF8B
:1021D0007F07000000FEFEFFFFC7C7C7E3FFFFFF4A
:1021E000FF0000000000FFFFFF03000000000000F0
:1021F0007FFFFFFFE0C0C0C0E0FFFFFFFF00000067
:1022000000000000000000000000000000000000CE
:1022100000000000000000000101010000000000BB
:1022200000000000000000010101010101010101A5
:10223000000000000000010101000000000000009B
:102240000000000101010100000000000101010186
:102250000000000000000101010101010100010175
:10226000010000000000010101000000000000006A
:102270000000010101010101010001010100000054
:10228000000000000000000000000080400000008E
:10229000000000000000000000000000000000003E
:1022A000000000000000000000000000000000002E
:1022B000000000000000000000000000000000001E
:1022C000000000000000000000000000000000000E
:1022D00000000000000000000000000000000000FE
:1022E00000000000000000000000000000000000EE
:1022F00000000000000000000000000000000000DE
:1023000000000000000000000000000000000000CD
:1023100000000000000000000000000000000000BD
:1023200000000000000000000000000000000000AD
:10233000000000000000000000000000000000009D
:10234000000000000000000000000000000000008D
:10235000000000000000000000000000000000007D
:10236000000000000000000000000000000000006D
:10237000000000000000000000000000000000005D
:10238000000000000000000000000000000000004D
:10239000000000000000000000C0C0C0C0C0C0C0FD
:1023A000C0C0C0C0C08000000000C0C0C0000000AD
:1023B00000000000000000C0C0C00000000000C01D
:1023C000C0C0C0C08000000000000000C0C0C0004D
:1023D000000000000000008080C0C0C0C0C0C0C0BD
:1023E000C0C0C0808000000000C0C0C0000000006D
:1023F000000000000000C0C0C0000000000000009D
:10240000C0C0C0000000000000000000000000008C
:10241000000000000000000000FFFFFF01010101BB
:10242000838383FFFFFFFF000000FFFFFF0000002A
:1024300000000000000000FFFFFF0000000000FFA0
:10244000FFFF1F3FFFFEF8E080000000FFFFFF00DE
:1024500000000000F8FEFFFF0F0703030303030360
:10246000030303070700000000FFFFFF8080808058
:10247000808080808080FFFFFF000000000000005F
:10248000FFFFFF000000000000000000000000004F
:10249000000000000000000000FFFFFF0707070723
:1024A00007070707070301000000FFFFFFFCC080CC
:1024B0008080808080C0FCFFFFFF0000000000FFE4
:1024C000FFFF000000030F3FFFFEFCF0FFFFFF00D7
:1024D000000000003FFFFFFFE0C080808080808020
:1024E000808080C0C000000000FFFFFF03030303E3
:1024F000030303030303FFFFFF00000000000000CD
:102500008F8F8F000000000000000000000000001E
:1025100000000000000000000007070700000000A6
:102520000000000000000000000000010307070792
:10253000070707070707070301000000000000075F
:102540000707000000000000000307070707070057
:102550000000000000000103030707070707070743
:10256000070707030300000000070707000000003B
:102570000000000000000707070000000000000046
:102580000707070000000000000000000000000036
:10259000000000000000000000000000000000003B
:1025A000000000000000000000000000000000002B
:1025B000000000000000000000000000000000001B
:1025C000000000000000000000000000000000000B
:1025D00000000000000000000000000000000000FB
:1025E00000000000000000000000000000000000EB
:1025F00000000000000000000000000000000000DB
:1026000000000000000000000000000000000000CA
:1026100000000000000000000000000000000000BA
:1026200000000000000000000000000000000000AA
:10263000000000000000000000000000000000009A
:10264000000000000000000000000000000000008A
:10265000000000000000000000000000000000007A
:10266000000000000000000000000000000000006A
:10267000000000000000000000000000000000005A
:10268000000000000000000000000000008040008A
:10269000000000000000000000000000000000003A
:1026A000000000000000000000000000000000002A
:1026B000000000000000000000000000000000001A
:1026C000000000000000000000000000000000000A
:1026D00000000000000000000000000000000000FA
:1026E00000000000000000000000000000000000EA
:1026F00000000000000000000000000000000000DA
:1027000000000000000000000000000000000000C9
:1027100000000000000000000000000000000000B9
:1027200000000000000000000000000000000000A9
:102730000000000000000000000000000000000099
:102740000000000000000000000000000000000089
:102750000000000000000000000000000000000079
:102760000000000000000000000000000000000069
:102770000000000000000000000000000000000059
:102780000000000000000000000000000000000049
:102790000000000000000000000000000000000039
:1027A00000000000000000000000000000E0E0E089
:1027B000000000000080C0E0E0E0E06020000000D9
:1027C000E0E0E00000000000000080C0C0E0E0E0C9
:1027D000E0E0E0E0E0E0E0C0C000000000E0E0E0B9
:1027E000000000000080C0E0E0E0E06020000000A9
:1027F00000E0E0E000000000000000000000000039
:1028000000000000000000000000000000000000C8
:1028100000000000000000000000000000000000B8
:1028200000000000000000000000000000FFFFFFAB
:10283000F0F8FCFE3F1F0F0703010000000000003E
:10284000FFFFFF0000000000FCFFFFFF0703010186
:1028500001010101010101030300000000FFFFFF6E
:10286000F0F8FCFE3F1F0F0703010000000000000E
:1028700000FFFFFF0000000000000000000000005B
:102880000000000000000000000000000000000048
:102890000000000000000000000000000000000038
:1028A00000000000000000000000000000FFFFFF2B
:1028B00003070F1F3F7EFCF8F0E0C080000000001F
:1028C000FFFFFF00000000001F7FFFFFF0E0C0C01F
:1028D000C0C0C0C0C0C0C0E0E000000000FFFFFFFB
:1028E00003070F1F3F7EFCF8F0E0C08000000000EF
:1028F00000C7C7C700000000000000000000000083
:1029000000000000000000000000000000000000C7
:1029100000000000000000000000000000000000B7
:10292000000000000000000000000000000303039E
:102930000000000000000001030303030302000085
:102940000303030000000000000000010103030373
:102950000303030303030301010000000003030357
:102960000000000000000001030303030302000055
:10297000000303030000000000000000000000004E
:102980000000000000000000000000000000000047
:102990000000000000000000000000000000000037
:1029A0000000000000000000000000000000000027
:1029B0000000000000000000000000000000000017
:1029C0000000000000000000000000000000000007
:1029D00000000000000000000000000000000000F7
:1029E00000000000000000000000000000000000E7
:1029F00000000000000000000000000000000000D7
:102A000000000000000000000000000000000000C6
:102A100000000000000000000000000000000000B6
:102A200000000000000000000000000000000000A6
:102A30000000000000000000000000000000000096
:102A40000000000000000000000000000000000086
:102A50000000000000000000000000000000000076
:102A60000000000000000000000000000000000066
:102A70000000000000000000000000000000000056
:102A800000000000000000000000000000000080C6
:102A900040000000000000000000000000000000F6
:102AA0000000000000000000000000000000000026
:102AB0000000000000000000000000000000000016
:102AC0000000000000000000000000000000000006
:102AD00000000000000000000000000000000000F6
:102AE00000000000000000000000000000000000E6
:102AF00000000000000000000000000000000000D6
:102B000000000000000000000000000000000000C5
:102B100000000000000000000000000000000000B5
:102B200000000000000000000000000000000000A5
:102B30000000000000000000000000000000000095
:102B40000000000000000000000000000000000085
:102B50000000000000000000000000000000000075
:102B60000000000000000000000000000000000065
:102B70000000000000000000000000000000000055
:102B80000000000000000000000000000000000045
:102B90000000000000000000000000000000000035
:102BA000E0E0E0E0E0E0E0E0E0E0E0E0C080000065
:102BB00000000000E0E0E000000000000000000075
:102BC0000000000080C0C0E0E0E0E0E0E0E0E0E025
:102BD000E0C0C0800000000000000080C0C0E0E055
:102BE000E0E0E0E0E0E0E0E0C0C000000000E0E0A5
:102BF000E0000000000080C0E0E0E0E060200000B5
:102C00000000E0E0E0000000000000000000000024
:102C100000000000000000000000000000000000B4
:102C2000FFFFFFC0C0C0C0E1E1E1FFFFFF3F0000C8
:102C300000000000FFFFFF00000000000000000097
:102C40000000FCFFFFFF0F03010101010101010171
:102C5000030FFFFFFFFC000000FCFFFFFF07030165
:102C60000101010101010101030300000000FFFF58
:102C7000FFF0F8FCFE3F1F0F0703010000000000FB
:102C80000000FFFFFF000000000000000000000047
:102C90000000000000000000000000000000000034
:102CA000FFFFFF8181818183C3C3C3FFFFFFFE005C
:102CB00000000000FFFFFF80808080808080808097
:102CC00080001F7FFFFFF8E0C0C0C0C0C0C0C0C010
:102CD000E0F8FFFF7F1F0000001F7FFFFFF0E0C054
:102CE000C0C0C0C0C0C0C0C0E0E000000000FFFF26
:102CF000FF03070F1F3F7EFCF8F0E0C080000000DC
:102D00000000C7C7C700000000000000000000006E
:102D100000000000000000000000000000000000B3
:102D2000030303030303030303030303030100007B
:102D3000000000000303030303030303030303036F
:102D40000300000000010103030303030303030363
:102D50000301010000000000000000000101030366
:102D60000303030303030303010100000000030343
:102D7000030000000000000001030303030302003E
:102D8000000003030300000000000000000000003A
:102D90000000000000000000000000000000000033
:102DA0000000000000000000000000000000000023
:102DB0000000000000000000000000000000000013
:102DC0000000000000000000000000000000000003
:102DD00000000000000000000000000000000000F3
:102DE00000000000000000000000000000000000E3
:102DF00000000000000000000000000000000000D3
:102E000000000000000000000000000000000000C2
:102E100000000000000000000000000000000000B2
:102E200000000000000000000000000000000000A2
:102E30000000000000000000000000000000000092
:102E40000000000000000000000000000000000082
:102E50000000000000000000000000000000000072
:102E60000000000000000000000000000000000062
:102E70000000000000000000000000000000000052
:102E80000000000000000000000000000000000042
:102E90000000000000240027002A00000000002598
:102EA0000028002B00000000002300260029000459
:102EB00004040404040404020202020202030303E1
:102EC00003030301020408102040800102040810DB
:102ED0002001020408102000000007000201000089
:102EE000030406000000000000000000CF195C2071
:102EF00011241FBECFEFD8E0DEBFCDBF11E0A0E0B0
:102F0000B1E0E2E4F7E402C005900D92A033B1070E
:102F1000D9F711E0A0E3B1E001C01D92A73EB107CF
:102F2000E1F71EE2C0EFDEE204C02297FE010E943C
:102F30009B23CC3ED107C9F70E944B1C0C949F23C6
:102F40000C940000FC0184910895FC017087678354
:102F50003583248346830895E62FF0E0E050FF4F49
:102F6000808180FF02C0409A01C0409881FF02C06A
:102F7000419A01C0419884B1807F84B98AB18F7031
:102F80008AB94398429A449A86E081508823E9F7A7
:102F90004F99FECF449808951F93FC01162F80810E
:102FA00090E08F739070009731F4442321F086E015
:102FB00081508823E9F7CF01642F0E94AC17439812
:102FC000429884B18F6084B98AB1806F8AB986E0F3
:102FD00081508823E9F795B1812F8F70907F892BDD
:102FE00085B98BB1107F8F70182B1BB986E081508B
:102FF0008823E9F7449A86E081508823E9F74498CA
:1030000086E081508823E9F786E081508823E9F73C
:1030100085B1807F85B98BB18F708BB91F91089571
:103020000F931F93CF93DF93EC01162F67FD22C000
:10303000403400F568834983042F0695069506956C
:103040008A81081761F00A83086BCE01602F40E087
:103050000E94CC17CE01602F41E00E94CC17612F57
:103060006F73606448814295469546954370CE01E2
:103070000E94CC17DF91CF911F910F9108950F936C
:103080001F93CF93DF93EC01062F188112951695AD
:1030900016951370612F0E94AC17002389F0688188
:1030A000862F90E08F739070009751F4112341F0B8
:1030B000CE0149810E941018CE01612F0E94AC17E9
:1030C000439A429A449A86E081508823E9F783B173
:1030D00019B1107F8F70182B4498002329F4CE016A
:1030E000688149810E9410188B8181111095812F70
:1030F000DF91CF911F910F910895CF93DF93EC0152
:1031000061E00E943F18CE0160E00E943F18DF910D
:10311000CF910895DF92EF92FF920F931F93CF9379
:10312000DF93EC01162F088107FDA8C002950695D4
:1031300006950370602F0E94AC176881862F90E07F
:103140008F739070009731F4002321F0CE014981F4
:103150000E941018439A429884B18F6084B98AB152
:10316000806F8AB9E98087E0E82209F468C0D8B0A6
:10317000CE010E947D18D8B894B19F6094B99AB1DD
:10318000906F9AB9012F10E0FF2498010E2C02C015
:10319000220F331F0A94E2F7282B8B81811120958F
:1031A00095B1822F8F70907F892B85B98BB1207F4D
:1031B0008F70282B2BB986E081508823E9F7449A39
:1031C00086E081508823E9F744984981485FCE0121
:1031D00068810E941018CE010E947D18D8B894B161
:1031E0009F6094B99AB1906F9AB928E030E02E1997
:1031F0003F0902C0159507952A95E2F7082B8B81A8
:103200008111009595B1802F8F70907F892B85B9A2
:103210008BB1007F8F70082B0BB986E0815088231B
:10322000E9F7449A86E081508823E9F74498688159
:103230006F5F49814850CE010E9410181FC08B81DA
:103240008111109586E081508823E9F795B1812F8F
:103250008F70907F892B85B98BB1107F8F70182B61
:103260001BB986E081508823E9F7449A86E08150B3
:103270008823E9F7449888818F5F8883DF91CF9115
:103280001F910F91FF90EF90DF900895FF920F93A1
:103290001F93CF93DF93EC01062FF42E000F000F46
:1032A000000F10E0CE01612F402F0E941018CE01B8
:1032B0006F2D0E948A181F5F1038A1F7DF91CF9100
:1032C0001F910F91FF900895FF920F931F93CF933B
:1032D000DF93EC01F62E00E010E0CE0160E0402F1D
:1032E0000E941018CE01612F4F2D0E9446191F5FBA
:1032F000085F183091F7DF91CF911F910F91FF90E8
:1033000008956F927F928F929F92AF92BF92CF92C9
:10331000DF92EF92FF920F931F93CF93DF93EC0115
:10332000142FF22ECB010196FB01A4906C0108949E
:10333000C11CD11CFC01B490B694B694B694EE2492
:103340008A2C99241BC0CE01612F4F2D0E9410188A
:1033500036010BC0F30164910F3F09F06095CE0177
:103360000E948A180894611C711C862D8C198A157C
:1033700088F3C80CD91CE394F8E0FF0EEB1418F3A3
:10338000DF91CF911F910F91FF90EF90DF90CF9041
:10339000BF90AF909F908F907F906F900895109204
:1033A000330108951F93CF93DF93EC01162F81E132
:1033B00061E00E94191D80E161E00E94191D82E117
:1033C00061E00E94191D8EE061E00E94191D8FE0EE
:1033D00061E00E94191D6AE070E080E090E00E94C8
:1033E000A81C439842984498188219821A821B8319
:1033F0006AE070E080E090E00E94A81CCE016FE3DC
:1034000040E00E94CC17CE0160EC40E00E94CC1757
:103410006AE070E080E090E00E94A81CCE016FE3BB
:1034200041E00E94CC17CE0160EC41E00E94CC1735
:1034300062E370E080E090E00E94A81C112311F488
:1034400060E001C06FEFCE010E946419CE0160E020
:1034500040E00E941018DF91CF911F910895EF92E4
:10346000FF920F931F93CF93DF93EC01062F172F3B
:1034700081E0E82EF12C26C08091080160E00E94D6
:10348000381DC701002E02C0880F991F0A94E2F769
:103490009C012C233D232817390721F480910A0130
:1034A00061E003C080910A0160E00E94381D8091B4
:1034B000080161E00E94381D81E090E00E94D21C6A
:1034C0000150104017FFD8CFDF91CF911F910F917E
:1034D000FF90EF90089580910A0161E00E94191D0C
:1034E0008091090160E00E94381D88E090E063E06F
:1034F00070E00E942F1A8091090161E00E94381D3E
:10350000089580910A0161E00E94191D80910901CE
:1035100060E00E94381D80E090E063E070E00E946F
:103520002F1A8091090161E00E94381D0895CF9201
:10353000DF92EF92FF920F931F93DF93CF930F923F
:10354000CDB7DEB7082F80910A0160E099830E9411
:10355000191D9981192FCC24DD2420C080910801E8
:1035600061E00E94381D81E090E00E94D21C8091B1
:103570000A010E94841DCC0CDD1C8130910519F4D8
:103580000894C11CD11C8091080160E00E94381D84
:1035900081E090E00E94D21C0150104017FFDECF66
:1035A000D3FE05C0E12C98EFF92ECE28DF28C60106
:1035B0000F90CF91DF911F910F91FF90EF90DF90CF
:1035C000CF90089580910A0161E00E94191D8091B9
:1035D000090160E00E94381D8CE090E063E070E03B
:1035E0000E942F1A83E090E00E94971A089580911C
:1035F0003F0190914001009721F10E949A1C209177
:10360000390130913A0140913B0150913C01621BDC
:10361000730B840B950B2091060130910701442711
:1036200037FD4095542F261737074807590748F4A8
:1036300080913D0160E00E94381D1092400110927F
:103640003F0108951F93DF93CF930F92CDB7DEB75D
:10365000182F80913D0160E099830E94381D812FD1
:1036600061E00E94381D10933D01998190933E01C5
:103670000E949A1C6093390170933A0180933B0138
:1036800090933C0181E090E09093400180933F0152
:103690000F90CF91DF911F9108950F931F93CF93B8
:1036A000DF9384ED91E00E940F20882309F457C036
:1036B00084ED91E00E942520182F803329F480E3C7
:1036C00091E060E00E946419C12FD0E09E01265570
:1036D00030408091020190910301821793076CF4AE
:1036E0009E01275530408091040190910501821779
:1036F00093071CF0CE010E94221B153641F4609105
:1037000045017091460184ED91E00E94CE1E20910A
:10371000210130912201C217D3070CF180912301BE
:1037200090912401820F931F8C179D07C4F080E3B2
:1037300091E060E00E946419809121019091220142
:10374000C81BD90BCC0FDD1FC55FDE4F68817981A7
:1037500080E391E040E020E00FEF0E948119DF91CB
:10376000CF911F910F910895EF92FF920F931F93A6
:103770000E944D1B0E94F71A0E946B1A68E270E0CB
:1037800080E090E00E94A81C0E94E21A8BE090E08A
:103790000E94971A90934201809341018BE090E040
:1037A0000E94971A909344018093430180910901EC
:1037B00061E00E94381D6091430170914401709551
:1037C00061957F4F882777FD8095982F0E94F8217B
:1037D0007B018C016091410170914201882777FD46
:1037E0008095982F0E94F8219B01AC01C801B70178
:1037F0000E940A212BED3FE049E450E40E945D2144
:1038000020E030E044E353E40E94B0220E94C5214E
:1038100070934601609345011F910F91FF90EF90C7
:1038200008950F93CF93DF9384ED91E040E855E244
:1038300060E070E00E941E1F8091090161E00E941B
:10384000191D8091080161E00E94191D80910A01F3
:1038500060E00E94191D0E94811AC0E3D1E0CE01F0
:1038600060E00E94D219CE0160E00E946419CE018E
:1038700065E970E040E020E00FEF0E948119CE0181
:1038800067E974E04FEF22EA37E10E94A517DF9164
:10389000CF910F9108950E94DF1C0E94111C0E947D
:1038A000B41BFDCF1F920F920FB60F9211242F93CE
:1038B0003F938F939F93AF93BF9380914B019091D0
:1038C0004C01A0914D01B0914E0130914F010196F4
:1038D000A11DB11D232F2D5F2D3720F02D570196EF
:1038E000A11DB11D20934F0180934B0190934C017A
:1038F000A0934D01B0934E018091470190914801F2
:10390000A0914901B0914A010196A11DB11D80937A
:10391000470190934801A0934901B0934A01BF9198
:10392000AF919F918F913F912F910F900FBE0F906C
:103930001F9018958FB7F89420914B0130914C014E
:1039400040914D0150914E018FBFB901CA010895B8
:10395000EF92FF920F931F937B018C018FB7F89426
:1039600020914B0130914C0140914D0150914E01FD
:103970008FBF6FB7F89480914B0190914C01A0914B
:103980004D01B0914E016FBF821B930BA40BB50B81
:10399000E816F9060A071B0760F71F910F91FF90C1
:1039A000EF900895019751F0880F991F880F991F84
:1039B00002972FB7F8940197F1F72FBF08957894E5
:1039C00084B5826084BD84B5816084BD85B5826024
:1039D00085BD85B5816085BDEEE6F0E080818160C2
:1039E0008083E1E8F0E08081826080838081816073
:1039F0008083E0E8F0E0808181608083E1EBF0E0AB
:103A0000808184608083E0EBF0E08081816080834E
:103A1000EAE7F0E080818460808380818260808337
:103A20008081816080838081806880831092C10062
:103A30000895282F30E0C9018D53914DFC019491D8
:103A4000F901E155F14DE491EE2389F0F0E0EE0F3C
:103A5000FF1FEF56F14DA591B491662329F48C9187
:103A6000909589238C9308958C91892B8C9308953C
:103A7000482F50E0CA018952914DFC0194919A015E
:103A80002D53314DF9012491FA01E155F14DE491A5
:103A9000EE23C9F1992331F1933021F49091800004
:103AA0009F7705C0943031F4909180009F7D909372
:103AB000800018C0913019F494B59F7704C09230FB
:103AC00021F494B59F7D94BD0DC0963021F4909162
:103AD000B0009F7705C0973029F49091B0009F7D8A
:103AE0009093B000F0E0EE0FFF1FE556F14DA59169
:103AF000B491662329F48C91209582238C930895A8
:103B00008C91822B8C930895282F30E0C901895223
:103B1000914DFC019491A9014D53514DFA014491ED
:103B2000F901E155F14DE491EE2319F420E030E084
:103B300036C0992331F1933021F4909180009F7722
:103B400005C0943031F4909180009F7D9093800067
:103B500018C0913019F494B59F7704C0923021F4C5
:103B600094B59F7D94BD0DC0963021F49091B00026
:103B70009F7705C0973029F49091B0009F7D909376
:103B8000B000F0E0EE0FFF1FEB55F14DA591B491A1
:103B90008C9120E030E0842311F021E030E0C90175
:103BA00008950F931F93CF93DF93EC018B0109C00E
:103BB0000F5F1F4FE881F9810190F081E02DCE0168
:103BC0000995F8016081662399F7DF91CF911F91E4
:103BD0000F910895EF92FF920F931F93CF93DF936E
:103BE000EC018B017A010DC0F80161918F01E88130
:103BF000F9810190F081E02DCE0109950894E1084A
:103C0000F108E114F10481F7DF91CF911F910F9139
:103C1000FF90EF900895DC01ED91FC910190F0810F
:103C2000E02D09950895CF93DF93EC016DE00E949C
:103C30000B1ECE016AE00E940B1EDF91CF9108950A
:103C40002F923F924F925F926F927F928F929F92AC
:103C5000AF92BF92CF92DF92EF92FF920F931F939A
:103C6000DF93CF93CDB7DEB7A2970FB6F894DEBF40
:103C70000FBECDBF2C015A016B01411551056105E5
:103C8000710521F460E30E940B1E4CC0EE24FF245A
:103C90008701622E7724882499241E010894211C10
:103CA000311CC1018E0D9F1D9AA389A3C601B501C8
:103CB000A40193010E944823E9A1FAA1608308941A
:103CC000E11CF11C011D111DC601B501A4019301E8
:103CD0000E944823A22EB32EC42ED52EA114B104C7
:103CE000C104D104F1F6D801C7010197A109B109B6
:103CF000280E391E12C00894E108F10801091109C3
:103D0000F10160816A3010F4605D01C0695CC2013C
:103D10000E940B1E089421083108E114F1040105EA
:103D2000110549F7A2960FB6F894DEBF0FBECDBFBE
:103D3000CF91DF911F910F91FF90EF90DF90CF9087
:103D4000BF90AF909F908F907F906F905F904F90BB
:103D50003F902F900895EF92FF920F931F93CF9370
:103D6000DF93EC017A018B0177FF0BC06DE20E94BB
:103D70000B1E10950095F094E094E11CF11C011DC0
:103D8000111DCE01B801A7012AE00E94201EDF917B
:103D9000CF911F910F91FF90EF900895CF93DF93F4
:103DA000EC01CB01AC01662757FD6095762FCE0163
:103DB0000E94AB1ECE010E94131EDF91CF91089589
:103DC0001F920F920FB60F9211242F933F934F9390
:103DD0005F936F937F938F939F93AF93BF93EF9373
:103DE000FF934091C6002091D0013091D101C901CB
:103DF000019660E870E00E943523BC018091D201F9
:103E00009091D3016817790741F0205B3E4FF9018B
:103E100040837093D1016093D001FF91EF91BF91E6
:103E2000AF919F918F917F916F915F914F913F9152
:103E30002F910F900FBE0F901F9018958F929F9209
:103E4000AF92BF92DF92EF92FF920F931F93CF93A7
:103E5000DF93EC017A018B01413482E458078FE053
:103E6000680780E078070CF07FC060E874E88EE1B6
:103E700090E0A80197010E946A23CA01B90161502C
:103E800070408040904022E030E040E050E00E94EE
:103E90006A2349015A01A501940120953095409566
:103EA000509594E0220F331F441F551F9A95D1F768
:103EB00060E074E284EF90E00E946A23CA01B901D5
:103EC0002FEF30E040E050E00E941623A801970158
:103ED0000E946A23C90121503F4F121613061CF499
:103EE000D82EDA9403C0DD24D394D81A60E079E0A8
:103EF0008DE390E0A80197010E946A23CA01B901ED
:103F0000615070408040904022E030E040E050E05E
:103F10000E946A23209530954095509583E0220FAA
:103F2000331F441F551F8A95D1F760E074E284EF78
:103F300090E00E946A23CA01B9012FEF30E040E00F
:103F400050E00E941623A80197010E946A23C9012C
:103F500021503F4F121613061CF4282F215002C087
:103F600021E0281B2D1500F5E885F98581E090E01A
:103F70000A8802C0880F991F0A94E2F7808360E0E4
:103F800079E08DE390E0A80197010E946A23CA01BD
:103F9000B901615070408040904022E030E040E044
:103FA00050E00E946A2304C0E885F98510829401DC
:103FB000EC81FD813083EE81FF812083EA85FB85E2
:103FC000808121E030E0A9010E8402C0440F551F1A
:103FD0000A94E2F7842B8083EA85FB858081A9011E
:103FE0000F8402C0440F551F0A94E2F7842B80838C
:103FF000EA85FB858081088802C0220F331F0A945E
:10400000E2F7822B8083DF91CF911F910F91FF9078
:10401000EF90DF90BF90AF909F908F900895FC013C
:1040200022813381F901E058FF4F808191818058CE
:104030009F4F2E573F4FF90120813181821B930BF7
:1040400060E870E00E9435230895DC0112962D91FE
:104050003C911397F901EE57FF4F80819181D9016F
:10406000A058BF4F4D915C9111974817590719F40B
:104070002FEF3FEF0CC0280F391FD9012C9101966B
:1040800060E870E00E9435239183808330E0C901AD
:104090000895FC01A085B18521898C9190E0022EC4
:1040A00002C0959587950A94E2F780FFF6CF0484C5
:1040B000F585E02D6083089589E291E09093D50124
:1040C0008093D40180E591E09093D7018093D6014D
:1040D00085EC90E09093D9018093D80184EC90E036
:1040E0009093DB018093DA0180EC90E09093DD0106
:1040F0008093DC0181EC90E09093DF018093DE01FE
:1041000086EC90E09093E1018093E00184E080935D
:10411000E20183E08093E30187E08093E40185E09E
:104120008093E50181E08093E60108955058BB2714
:10413000AA270ED0D4C1C5D130F0CAD120F031F4B5
:104140009F3F11F41EF495C10EF4E095E7FB8BC17F
:10415000E92FD6D180F3BA17620773078407950752
:1041600018F071F49EF5EEC10EF4E0950B2EBA2F07
:10417000A02D0B01B90190010C01CA01A00111246D
:10418000FF27591B99F0593F50F4503E68F11A1619
:10419000F040A22F232F342F4427585FF3CF4695AA
:1041A00037952795A795F0405395C9F77EF41F16CC
:1041B000BA0B620B730B840BBAF09150A1F0FF0F96
:1041C000BB1F661F771F881FC2F70EC0BA0F621F82
:1041D000731F841F48F4879577956795B795F79572
:1041E0009E3F08F0B3CF9395880F08F09927EE0F04
:1041F00097958795089565D158F080E891E009F486
:104200009EEF66D128F040E851E059F45EEF09C016
:1042100030C198C1E92FE07873D168F3092E052ADF
:10422000C1F3261737074807590738F00E2E07F84D
:10423000E02569F0E025E0640AC0EF6307F8009428
:1042400007FADB01B9019D01DC01CA01AD01EF9361
:1042500043D045D10AD05F91552331F02BED3FE09B
:1042600049E450FD49EC63CF0895DF93DD27B92F72
:10427000BF7740E85FE31616170648075B0710F4A0
:10428000D92F67D19F938F937F936F93CCD1E8E61B
:10429000F0E0F2D024D12F913F914F915F916CD1FA
:1042A000DD2349F09058A2EA2AED3FE049EC5FE3B4
:1042B000D0785D274DDFDF9112C10CD010C108D13D
:1042C00040F0FFD030F021F45F3F19F0CCC0511125
:1042D0003AC1CFC015D198F39923C9F35523B1F34F
:1042E000951B550BBB27AA2762177307840738F065
:1042F0009F5F5F4F220F331F441FAA1FA9F333D0C4
:104300000E2E3AF0E0E830D091505040E695001C77
:10431000CAF729D0FE2F27D0660F771F881FBB1F33
:10432000261737074807AB07B0E809F0BB0B802D0D
:10433000BF01FF2793585F4F2AF09E3F510568F059
:1043400092C001C15F3FECF3983EDCF38695779510
:104350006795B795F7959F5FC9F7880F911D96955B
:10436000879597F90895E1E0660F771F881FBB1FB7
:10437000621773078407BA0720F0621B730B840B64
:10438000BA0BEE1F88F7E095089504D06894B11138
:10439000DAC00895BDD088F09F5790F0B92F9927C3
:1043A000B751A0F0D1F0660F771F881F991F1AF040
:1043B000BA95C9F712C0B13081F0C4D0B1E0089508
:1043C000C1C0672F782F8827B85F39F0B93FCCF389
:1043D000869577956795B395D9F73EF49095809536
:1043E000709561957F4F8F4F9F4F0895E89409C056
:1043F00097FB3EF490958095709561957F4F8F4F18
:104400009F4F9923A9F0F92F96E9BB279395F6952D
:10441000879577956795B795F111F8CFFAF4BB0FAB
:1044200011F460FF1BC06F5F7F4F8F4F9F4F16C00F
:10443000882311F096E911C0772321F09EE8872F99
:10444000762F05C0662371F096E8862F70E060E055
:104450002AF09A95660F771F881FDAF7880F9695CE
:10446000879597F9089597F99F6780E870E060E075
:1044700008959FEF80EC0895DF93CF931F930F93E0
:10448000FF92EF92DF927B018C01689405C0DA2ED7
:10449000EF0172D0FE01E894A591259135914591E7
:1044A0005591AEF3EF0154DEFE019701A801DA94B5
:1044B00079F7DF90EF90FF900F911F91CF91DF91EF
:1044C000089500240A94161617061806090608957A
:1044D00000240A9412161306140605060895092EE0
:1044E0000394000C11F4882352F0BB0F40F4BF2B4F
:1044F00011F460FF04C06F5F7F4F8F4F9F4F08958F
:1045000057FD9058440F551F59F05F3F71F0479584
:10451000880F97FB991F61F09F3F79F08795089569
:10452000121613061406551FF2CF4695F1DF08C088
:10453000161617061806991FF1CF869571056105A5
:1045400008940895E894BB2766277727CB0197F94D
:1045500008959B01AC0160E070E080E89FE3ADCE80
:104560000BD0BDCFAEDF28F0B3DF18F0952309F0F4
:104570007ACF7FCF1124E7CFC3DFA0F3959FD1F38C
:10458000950F50E0551F629FF001729FBB27F00D01
:10459000B11D639FAA27F00DB11DAA1F649F662756
:1045A000B00DA11D661F829F2227B00DA11D621FA5
:1045B000739FB00DA11D621F839FA00D611D221F5F
:1045C000749F3327A00D611D231F849F600D211D43
:1045D000822F762F6A2F11249F5750408AF0E1F0E6
:1045E00088234AF0EE0FFF1FBB1F661F771F881F2F
:1045F00091505040A9F79E3F510570F034CFA3CFA2
:104600005F3FECF3983EDCF3869577956795B79519
:10461000F795E7959F5FC1F7FE2B880F911D969543
:10462000879597F908959B01AC019ACF629FD001BD
:10463000739FF001829FE00DF11D649FE00DF11D5D
:10464000929FF00D839FF00D749FF00D659FF00D0C
:104650009927729FB00DE11DF91F639FB00DE11DF9
:10466000F91FBD01CF011124089597FB092E0726DC
:104670000AD077FD04D049D006D000201AF47095F6
:1046800061957F4F0895F6F7909581959F4F089516
:10469000A1E21A2EAA1BBB1BFD010DC0AA1FBB1F46
:1046A000EE1FFF1FA217B307E407F50720F0A21BB8
:1046B000B30BE40BF50B661F771F881F991F1A9425
:1046C00069F760957095809590959B01AC01BD014F
:1046D000CF01089597FB092E05260ED057FD04D073
:1046E000D7DF0AD0001C38F45095409530952195BD
:1046F0003F4F4F4F5F4F0895F6F790958095709517
:1047000061957F4F8F4F9F4F0895AA1BBB1B51E1AF
:1047100007C0AA1FBB1FA617B70710F0A61BB70B31
:10472000881F991F5A95A9F780959095BC01CD01D6
:104730000895EE0FFF1F0590F491E02D0994F89471
:02474000FFCFA9
:1047420001020A000D00B80B02030C95007D067FE2
:104752000A810E83128516871A891E8B228D268F57
:104762002A66000B00000000004920D11DEA1D004E
:00000001FF
