:100000000C9463000C948B000C948B000C948B006C
:100010000C948B000C948B000C948B000C948B0034
:100020000C948B000C948B000C948B000C948B0024
:100030000C948B000C948B000C948B000C948B0014
:100040000C947E030C948B000C94D3040C948B00C2
:100050000C948B000C948B000C948B000C948B00F4
:100060000C948B000C948B000000000024002700EF
:100070002A0000000000250028002B0000000000DE
:1000800023002600290004040404040404040202DA
:100090000202020203030303030301020408102007
:1000A0004080010204081020010204081020000012
:1000B0000007000201000003040600000000000029
:1000C000000057024F0611241FBECFEFD8E0DEBF5D
:1000D000CDBF11E0A0E0B1E0E6E3FEE002C0059094
:1000E0000D92AA34B107D9F712E0AAE4B1E001C039
:1000F0001D92A732B107E1F710E0C6ECD0E004C0D2
:100100002297FE010E940E07C23CD107C9F70E9448
:1001100077030C9419070C940000CF93DF93EC0144
:100120008C8160E00E943A0481E090E00E94D40358
:100130008C8161E00E943A0481E090E00E94D40347
:100140008C8160E00E943A0484E690E00E94D4032F
:10015000DF91CF910895AF92BF92CF92DF92EF924D
:10016000FF921F93DF93CF930F92CDB7DEB7182F77
:10017000E12EF92EAA24BB24C62EDD24F7018581A9
:1001800061E099830E941B04B6010A2C02C0759598
:1001900067950A94E2F76170F70185810E943A043D
:1001A0000894A11CB11C0894E11CF11C9981F8E091
:1001B000AF16B10419F7812F0E948D000F90CF91D7
:1001C000DF911F91FF90EF90DF90CF90BF90AF90A5
:1001D0000895AF92BF92CF92DF92EF92FF921F935A
:1001E000DF93CF930F92CDB7DEB7182FE12EF92E04
:1001F000AA24BB24C62EDD24F701858161E0998302
:100200000E941B04B6010A2C02C0759567950A94DA
:10021000E2F76170F70185810E943A040894A11CFD
:10022000B11C0894E11CF11C9981F4E0AF16B104F3
:1002300019F7812F0E948D000F90CF91DF911F91B0
:10024000FF90EF90DF90CF90BF90AF9008951F93F5
:10025000CF93DF93EC01162F8A81642F0E943A041A
:100260008B8160E00E943A048D8584FF05C0CE0139
:10027000612F0E94AB000EC0612F70E084E0759585
:1002800067958A95E1F7CE010E94E900CE01612FC2
:100290000E94E900DF91CF911F91089541E00E94F3
:1002A0002701089540E00E9427010895FC0166851A
:1002B0006D7F668768600E9452010895FC01668523
:1002C000262F246026876C600E945201089561E009
:1002D0000E94520180ED97E00E94D4030895CF93CD
:1002E000DF93EC01423018F08D8588608D87498B53
:1002F0001A8A222329F0413019F48D8584608D8774
:1003000080E593EC0E94D4038A8160E00E943A0465
:100310008C8160E00E943A048B8160E00E943A0484
:100320006D8564FD1DC0CE0163E00E94E90084E993
:1003300091E10E94D403CE0163E00E94E90084E9C8
:1003400091E10E94D403CE0163E00E94E90086E9B6
:1003500090E00E94D403CE0162E00E94E90016C042
:100360006062CE010E94520184E991E10E94D403AF
:100370006D856062CE010E94520186E990E00E9484
:10038000D4036D856062CE010E9452016D8560626A
:10039000CE010E94520184E08E87CE010E945E0150
:1003A000CE010E94670182E08F87CE0166E00E9445
:1003B0005201DF91CF9108956F927F928F92AF9209
:1003C000CF92EF920F931F93DF93CF93CDB7DEB70A
:1003D0003C01162F842FF301428323830483E5829B
:1003E000C682A78280869D8591879E8592879F85FC
:1003F00093879889948761E00E941B04F3018381AD
:1004000061E00E941B04F301848161E00E941B04EF
:10041000112319F0F301158603C080E1F3018587EC
:10042000C30160E141E020E00E946F01CF91DF91C4
:100430001F910F91EF90CF90AF908F907F906F9022
:1004400008958F92AF92CF92EF920F93CF93DF9355
:10045000E62F742F522F302FAE2C8C2CA9E3B1E055
:10046000EC01B983A88300D000D0ADB7BEB7119618
:10047000CDB7DEB7198211961C92119712961C9275
:10048000129713961C9261E04E2F2FEF072FE52E47
:10049000C32E0E94DC010F900F900F900F90DF9100
:1004A000CF910F91EF90CF90AF908F900895CF9212
:1004B000EF920F938AE491E068E047E026E005E0E0
:1004C00054E0E52E33E0C32E0E9421020F91EF90FD
:1004D000CF9008950F931F93CF93DF9384E192E021
:1004E0000E940206882309F469C0809181019091DD
:1004F0008201009709F44FC0009185011091860197
:1005000084E192E00E941806C1E7D1E0F801EC0F07
:10051000FD1F8083E0918501F0918601EC0FFD1FA6
:1005200084E192E060810E94C804809185019091ED
:100530008601FC01EC0FFD1F20812D3011F581E6B5
:1005400091E010E1FC01212F11922A95E9F7BE01FB
:100550000E941207FE0111921A95E9F71092860186
:100560001092850181E090E0909384018093830153
:10057000109282011092810184E192E060E071E0CA
:100580001BC0019660E170E00E94A806909386016E
:100590008093850113C084E192E00E9418068236A0
:1005A000910561F481E090E0909382018093810154
:1005B00084E192E060E171E00E94CB04DF91CF9191
:1005C0001F910F91089580915F01909160010097B4
:1005D00041F10E94C60320915D0130915E014427E4
:1005E00037FD4095542F621B730B840B950B2091A4
:1005F000330130913401442737FD4095542F26179D
:1006000037074807590768F48091310160E00E947C
:100610003A048AE491E00E9467011092600110920E
:100620005F010895CF93DF93CAE4D1E0CE010E9429
:100630006701CE010E945601CE0161E671E00E9481
:10064000CB040E94C60370935E0160935D0181E05C
:1006500090E09093600180935F011092840110926A
:1006600083018091310161E00E943A04DF91CF91D2
:1006700008950E94E3020E946A0280918301909192
:100680008401009711F00E9412030895CF93DF9325
:1006900084E192E04CE05FED60E070E00E941105C3
:1006A000CAE4D1E0CE0160E142E020E00E946F01A7
:1006B0008091310161E00E941B04CE0164E271E08F
:1006C0000E94CB048091310161E00E943A0481E0F4
:1006D00090E09093600180935F0180E1E1E6F1E0BA
:1006E000DF011D928A95E9F7DF91CF9108950E946D
:1006F000E1030E9446030E943903FDCF1F920F922F
:100700000FB60F9211242F933F938F939F93AF9324
:10071000BF9380918B0190918C01A0918D01B0913C
:100720008E0130918F010196A11DB11D232F2D5FE8
:100730002D3720F02D570196A11DB11D20938F015B
:1007400080938B0190938C01A0938D01B0938E01C7
:100750008091870190918801A0918901B0918A01CF
:100760000196A11DB11D8093870190938801A093EC
:100770008901B0938A01BF91AF919F918F913F9171
:100780002F910F900FBE0F901F9018958FB7F89470
:1007900020918B0130918C0140918D0150918E01FF
:1007A0008FBFB901CA010895019751F0880F991FB1
:1007B000880F991F02972FB7F8940197F1F72FBF71
:1007C0000895789484B5826084BD84B5816084BDC9
:1007D00085B5826085BD85B5816085BDEEE6F0E0BA
:1007E000808181608083E1E8F0E0808182608083A5
:1007F000808181608083E0E8F0E080818160808397
:10080000E1EBF0E0808184608083E0EBF0E08081C8
:1008100081608083EAE7F0E080818460808380816A
:100820008260808380818160808380818068808312
:100830001092C1000895282F30E0C90186569F4FBD
:10084000FC019491F901EA57FF4FE491EE2389F0FE
:10085000F0E0EE0FFF1FE859FF4FA591B49166231A
:1008600029F48C91909589238C9308958C91892BF0
:100870008C930895482F50E0CA0182559F4FFC0188
:1008800094919A0126563F4FF9012491FA01EA57B3
:10089000FF4FE491EE23C9F1992331F1933021F414
:1008A000909180009F7705C0943031F49091800042
:1008B0009F7D9093800018C0913019F494B59F7774
:1008C00004C0923021F494B59F7D94BD0DC0963044
:1008D00021F49091B0009F7705C0973029F4909152
:1008E000B0009F7D9093B000F0E0EE0FFF1FEE5838
:1008F000FF4FA591B491662329F48C912095822312
:100900008C9308958C91822B8C9308950F931F9351
:10091000CF93DF93EC018B0109C00F5F1F4FE8817C
:10092000F9810190F081E02DCE010995F8016081F7
:10093000662399F7DF91CF911F910F910895EF9260
:10094000FF920F931F93CF93DF93EC018B017A01FA
:100950000DC0F80161918F01E881F9810190F0816A
:10096000E02DCE0109950894E108F108E114F104A5
:1009700081F7DF91CF911F910F91FF90EF90089534
:10098000DC01ED91FC910190F081E02D0995089535
:100990000E94C0040895DC01ED91FC910280F38176
:1009A000E02D099508951F920F920FB60F92112412
:1009B0002F933F934F935F936F937F938F939F9367
:1009C000AF93BF93EF93FF934091C6002091100225
:1009D00030911102C901019660E870E00E94A806FA
:1009E000BC0180911202909113026817790741F0BF
:1009F00020573E4FF901408370931102609310021B
:100A0000FF91EF91BF91AF919F918F917F916F91E6
:100A10005F914F913F912F910F900FBE0F901F90BC
:100A200018958F929F92AF92BF92DF92EF92FF92B2
:100A30000F931F93CF93DF93EC017A018B01413425
:100A400082E458078FE0680780E078070CF07FC0E9
:100A500060E874E88EE190E0A80197010E94DD064D
:100A6000CA01B901615070408040904022E030E0FE
:100A700040E050E00E94DD0649015A01A5019401C1
:100A8000209530954095509594E0220F331F441FD8
:100A9000551F9A95D1F760E074E284EF90E00E94D0
:100AA000DD06CA01B9012FEF30E040E050E00E94BE
:100AB0008906A80197010E94DD06C90121503F4F18
:100AC000121613061CF4D82EDA9403C0DD24D39436
:100AD000D81A60E079E08DE390E0A80197010E94C8
:100AE000DD06CA01B901615070408040904022E0AB
:100AF00030E040E050E00E94DD06209530954095C2
:100B0000509583E0220F331F441F551F8A95D1F75C
:100B100060E074E284EF90E00E94DD06CA01B90152
:100B20002FEF30E040E050E00E948906A8019701D5
:100B30000E94DD06C90121503F4F121613061CF416
:100B4000282F215002C021E0281B2D1500F5E88533
:100B5000F98581E090E00A8802C0880F991F0A9405
:100B6000E2F7808360E079E08DE390E0A8019701EF
:100B70000E94DD06CA01B90161507040804090407A
:100B800022E030E040E050E00E94DD0604C0E8854D
:100B9000F98510829401EC81FD813083EE81FF8123
:100BA0002083EA85FB85808121E030E0A9010E8465
:100BB00002C0440F551F0A94E2F7842B8083EA8514
:100BC000FB858081A9010F8402C0440F551F0A9440
:100BD000E2F7842B8083EA85FB858081088802C048
:100BE000220F331F0A94E2F7822B8083DF91CF918B
:100BF0001F910F91FF90EF90DF90BF90AF909F906B
:100C00008F900895FC0122813381F901E058FF4F54
:100C10008081918180589F4F2E573F4FF90120814D
:100C20003181821B930B60E870E00E94A806089552
:100C3000DC0112962D913C911397F901EE57FF4F6D
:100C400080819181D901A058BF4F4D915C9111973E
:100C50004817590719F42FEF3FEF0CC0280F391F21
:100C6000D9012C91019660E870E00E94A80691835A
:100C7000808330E0C9010895FC01A085B1852189F8
:100C80008C9190E0022E02C0959587950A94E2F728
:100C900080FFF6CF0484F585E02D6083089583E41A
:100CA00091E0909315028093140280E991E0909373
:100CB00017028093160285EC90E0909319028093BE
:100CC000180284EC90E090931B0280931A0280EC4F
:100CD00090E090931D0280931C0281EC90E0909331
:100CE0001F0280931E0286EC90E090932102809375
:100CF000200284E08093220283E08093230287E035
:100D00008093240285E08093250281E0809326026F
:100D10000895629FD001739FF001829FE00DF11D45
:100D2000649FE00DF11D929FF00D839FF00D749F65
:100D3000F00D659FF00D9927729FB00DE11DF91F11
:100D4000639FB00DE11DF91FBD01CF01112408956E
:100D500097FB092E07260AD077FD04D049D006D08C
:100D600000201AF4709561957F4F0895F6F79095DD
:100D700081959F4F0895A1E21A2EAA1BBB1BFD016E
:100D80000DC0AA1FBB1FEE1FFF1FA217B307E4076A
:100D9000F50720F0A21BB30BE40BF50B661F771FC2
:100DA000881F991F1A9469F76095709580959095A2
:100DB0009B01AC01BD01CF01089597FB092E0526CB
:100DC0000ED057FD04D0D7DF0AD0001C38F4509560
:100DD0004095309521953F4F4F4F5F4F0895F6F75F
:100DE00090958095709561957F4F8F4F9F4F089597
:100DF000AA1BBB1B51E107C0AA1FBB1FA617B70741
:100E000010F0A61BB70B881F991F5A95A9F780955C
:100E10009095BC01CD010895EE0FFF1F0590F49150
:100E2000E02D0994FB01DC0101900D920020E1F717
:060E30000895F894FFCFC5
:100E360053746F7070696E6720526561642E0A0084
:100E4600426567696E6E696E6720746F20526561D0
:100E5600642E0A00446F6E277420537465616C21FA
:100E6600000900B80B000000004E0186049F040034
:0A0E76000000003C0686049F040003
:00000001FF
