:100000000C9463000C948B000C948B000C948B006C
:100010000C948B000C948B000C948B000C948B0034
:100020000C948B000C948B000C948B000C948B0024
:100030000C948B000C948B000C948B000C948B0014
:100040000C948E020C948B000C94CA030C948B00BD
:100050000C948B000C948B000C948B000C948B00F4
:100060000C948B000C948B000000000024002700EF
:100070002A0000000000250028002B0000000000DE
:1000800023002600290004040404040404040202DA
:100090000202020203030303030301020408102007
:1000A0004080010204081020010204081020000012
:1000B0000007000201000003040600000000000029
:1000C00000004202130511241FBECFEFD8E0DEBFAF
:1000D000CDBF11E0A0E0B1E0E0EBFBE002C0059095
:1000E0000D92A032B107D9F711E0A0E2B1E001C052
:1000F0001D92A53EB107E1F710E0C6ECD0E004C0C8
:100100002297FE010E94D205C23CD107C9F70E9486
:1001100087020C94D6050C9400000F931F938C015A
:10012000FC01848160E00E943E0381E090E00E9437
:10013000D602F801848161E00E943E0381E090E0F4
:100140000E94D602F801848160E00E943E0384E6AA
:1001500090E00E94D6021F910F910895CF92DF92F6
:10016000EF92FF920F931F93CF93DF93D82EC92E58
:10017000282F392FC9018C01C0E0D0E0E62EFF24E2
:10018000F801858161E00E941E03B7010C2E02C0B8
:10019000759567950A94E2F76170F80185810E9470
:1001A0003E0321960F5F1F4FC830D10549F78D2DB3
:1001B0009C2D0E948D00DF91CF911F910F91FF9098
:1001C000EF90DF90CF900895CF92DF92EF92FF9261
:1001D0000F931F93CF93DF93D82EC92E282F392F3B
:1001E000C9018C01C0E0D0E0E62EFF24F801858132
:1001F00061E00E941E03B7010C2E02C07595679541
:100200000A94E2F76170F80185810E943E0321960D
:100210000F5F1F4FC430D10549F78D2D9C2D0E94D3
:100220008D00DF91CF911F910F91FF90EF90DF90A4
:10023000CF9008951F93CF93DF93EC01162F8A81FF
:10024000642F0E943E038B8160E00E943E038D85F7
:1002500084FF05C0CE01612F0E94AE000EC0612F49
:1002600070E084E0759567958A95E1F7CE010E946C
:10027000E400CE01612F0E94E400DF91CF911F9135
:10028000089541E00E941A01089540E00E941A0179
:100290000895FC016685862F846086876C60CF0197
:1002A0000E944501089561E00E94450180ED97E0BC
:1002B0000E94D6020895CF93DF93EC01423018F0EC
:1002C0008D8588608D87498B1A8A222329F04130D9
:1002D00019F48D8584608D8780E593EC0E94D602A9
:1002E0008A8160E00E943E038C8160E00E943E03B0
:1002F0008B8160E00E943E036D8564FD1DC0CE01D0
:1003000063E00E94E40084E991E10E94D602CE01FC
:1003100063E00E94E40084E991E10E94D602CE01EC
:1003200063E00E94E40086E990E00E94D602CE01DC
:1003300062E00E94E40016C06062CE010E944501A6
:1003400084E991E10E94D6026D856062CE010E942F
:10035000450186E990E00E94D6026D856062CE017B
:100360000E9445016D856062CE010E94450184E0D6
:100370008E87CE010E944901CE010E94530182E086
:100380008F87CE0166E00E944501DF91CF910895ED
:100390006F927F928F92AF92CF92EF920F931F93B3
:1003A000DF93CF93CDB7DEB73C01162F842FF30137
:1003B000428323830483E582C682A78280869D854B
:1003C00091879E8592879F8593879889948761E01E
:1003D0000E941E03F301838161E00E941E03F3016A
:1003E000848161E00E941E03112319F0F301158638
:1003F00003C080E1F3018587C30160E141E020E0B3
:100400000E945B01CF91DF911F910F91EF90CF90F0
:10041000AF908F907F906F9008958F92AF92CF9210
:10042000EF920F931F93CF93DF93DC01362F542F5E
:10043000722F102FAE2C8C2C8FE091E011969C9394
:100440008E9300D000D0EDB7FEB73196CDB7DEB7B2
:100450001982118212821382CD0161E0432F2FEFA6
:10046000052FE72EC12E0E94C8010F900F900F900C
:100470000F90DF91CF911F910F91EF90CF90AF90A0
:100480008F900895CF92EF920F9380E291E06CE00D
:100490004BE025E004E053E0E52E32E0C32E0E945D
:1004A0000D020F91EF90CF90089582ED91E040E81A
:1004B00055E260E070E00E94070408950F931F93D7
:1004C00000E211E0C80160E142E020E00E945B012F
:1004D0008091090161E00E941E03C80160E071E0A3
:1004E0000E94C2038091090161E00E943E0381E005
:1004F00090E0909334018093330180E1E5E3F1E0F3
:10050000DF011D928A95E9F71F910F9108950E94CE
:10051000E4020E945E020E945502FDCF1F920F92DC
:100520000FB60F9211242F933F938F939F93AF9306
:10053000BF938091490190914A01A0914B01B091E4
:100540004C0130914D010196A11DB11D232F2D5F4E
:100550002D3720F02D570196A11DB11D20934D017F
:100560008093490190934A01A0934B01B0934C01B1
:100570008091450190914601A0914701B0914801B9
:100580000196A11DB11D8093450190934601A09352
:100590004701B0934801BF91AF919F918F913F91D7
:1005A0002F910F900FBE0F901F901895019759F043
:1005B000FC01EE0FFF1FEE0FFF1F32978FB7F8946D
:1005C0003197F1F78FBF0895789484B5826084BD28
:1005D00084B5816084BD85B5826085BD85B5816047
:1005E00085BDEEE6F0E0808181608083E1E8F0E0A7
:1005F000808182608083808181608083E0E8F0E098
:10060000808181608083E1EBF0E080818460808381
:10061000E0EBF0E0808181608083EAE7F0E08081B8
:100620008460808380818260808380818160808318
:100630008081806880831092C1000895282F30E067
:10064000C90186569F4FFC0194912A573F4FF901EB
:100650008491882391F0E82FF0E0EE0FFF1FE85916
:10066000FF4FA591B491662329F48C91909589232D
:100670008C9308958C91892B8C930895482F50E08A
:10068000CA0182559F4FFC012491CA0186569F4F93
:10069000FC0194914A575F4FFA0134913323D1F111
:1006A000222331F1233021F4809180008F7705C01F
:1006B000243031F4809180008F7D8093800018C0B9
:1006C000213019F484B58F7704C0223021F484B529
:1006D0008F7D84BD0DC0263021F48091B0008F77CE
:1006E00005C0273029F48091B0008F7D8093B00041
:1006F000E32FF0E0EE0FFF1FEE58FF4FA591B491EE
:10070000662329F48C91909589238C9308958C917C
:10071000892B8C9308950F931F93CF93DF938C01B4
:10072000EB0109C02196D801ED91FC910190F08177
:10073000E02DC801099568816623A1F7DF91CF916B
:100740001F910F910895EF92FF920F931F93CF93F4
:10075000DF938C017B01EA010CC0D7016D917D0113
:10076000D801ED91FC910190F081E02DC80109952F
:100770002197209791F7DF91CF911F910F91FF90D3
:10078000EF900895DC01ED91FC910280F381E02D62
:10079000099508951F920F920FB60F9211242F936F
:1007A0003F934F935F936F937F938F939F93AF93F9
:1007B000BF93EF93FF934091C600E091CE01F0917B
:1007C000CF01CF01019660E870E00E946C059C01AA
:1007D0008091D0019091D1012817390739F0E25B5F
:1007E000FE4F40833093CF012093CE01FF91EF91D4
:1007F000BF91AF919F918F917F916F915F914F9139
:100800003F912F910F900FBE0F901F9018955F9200
:100810006F927F928F929F92AF92BF92CF92DF9210
:10082000EF92FF920F931F93CF93DF93EC013A0166
:100830004B01413482E458078FE0680780E0780775
:100840000CF07FC060E874E88EE190E0A4019301B1
:100850000E94A1052150304040405040CA01B901DA
:1008600022E030E040E050E00E94A10559016A0119
:10087000A6019501209530954095509594E0220F62
:10088000331F441F551F9A95D1F760E074E284EF3F
:1008900090E00E94A105CA01B9012FEF30E040E0CD
:1008A00050E00E944D05A40193010E94A105C901D9
:1008B00081509F4F181619061CF4522E5A9403C0EB
:1008C00055245394521A60E079E08DE390E0A4013E
:1008D00093010E94A1052150304040405040CA0180
:1008E000B90122E030E040E050E00E94A1052095EF
:1008F00030954095509583E0220F331F441F551FBC
:100900008A95D1F760E074E284EF90E00E94A1053F
:10091000CA01B9012FEF30E040E050E00E944D05E0
:10092000A40193010E94A105C90181509F4F18168F
:1009300019061CF4822F815002C081E0821B8515AC
:1009400000F5E885F98581E090E00A8802C0880F0B
:10095000991F0A94E2F7808360E079E08DE390E0EC
:10096000A40193010E94A105215030404040504015
:10097000CA01B90122E030E040E050E00E94A10548
:1009800004C0E885F98510829501EC81FD813083F2
:10099000EE81FF812083EA85FB85208141E050E0E4
:1009A000CA010E8402C0880F991F0A94E2F7282B0F
:1009B0002083EA85FB852081CA010F8402C0880F4D
:1009C000991F0A94E2F7282B2083EA85FB85808112
:1009D000088802C0440F551F0A94E2F7842B8083D5
:1009E000DF91CF911F910F91FF90EF90DF90CF900B
:1009F000BF90AF909F908F907F906F905F90089581
:100A0000FC01A085B18521898C9190E0022E02C065
:100A1000959587950A94E2F780FFF6CF0484F585D3
:100A2000E02D6083089589E191E09093D301809354
:100A3000D2018EE491E09093D5018093D40185ECAE
:100A400090E09093D7018093D60184EC90E090934E
:100A5000D9018093D80180EC90E09093DB018093E2
:100A6000DA0181EC90E09093DD018093DC0186EC6B
:100A700090E09093DF018093DE0184E08093E001B9
:100A800083E08093E10187E08093E20185E0809339
:100A9000E30181E08093E4010895629FD001739F98
:100AA000F001829FE00DF11D649FE00DF11D929F0A
:100AB000F00D839FF00D749FF00D659FF00D992749
:100AC000729FB00DE11DF91F639FB00DE11DF91F6D
:100AD000BD01CF011124089597FB092E07260AD0E6
:100AE00077FD04D049D006D000201AF470956195A6
:100AF0007F4F0895F6F7909581959F4F0895A1E255
:100B00001A2EAA1BBB1BFD010DC0AA1FBB1FEE1F87
:100B1000FF1FA217B307E407F50720F0A21BB30BD2
:100B2000E40BF50B661F771F881F991F1A9469F74E
:100B300060957095809590959B01AC01BD01CF01AA
:100B4000089597FB092E05260ED057FD04D0D7DF58
:100B50000AD0001C38F450954095309521953F4FB0
:100B60004F4F5F4F0895F6F790958095709561957A
:100B70007F4F8F4F9F4F0895AA1BBB1B51E107C0AA
:100B8000AA1FBB1FA617B70710F0A61BB70B881F1D
:100B9000991F5A95A9F780959095BC01CD010895AC
:100BA000EE0FFF1F0590F491E02D0994F894FFCF0C
:100BB0004765742053657421000D0000000000415A
:100BC000018B03A3030000000000058B03A30300B7
:00000001FF
