:100000000C9463000C948B000C948B000C948B006C
:100010000C948B000C948B000C948B000C948B0034
:100020000C948B000C948B000C948B000C948B0024
:100030000C948B000C948B000C948B000C948B0014
:100040000C947A030C948B000C9485040C948B0014
:100050000C948B000C948B000C948B000C948B00F4
:100060000C948B000C948B000000000024002700EF
:100070002A0000000000250028002B0000000000DE
:1000800023002600290004040404040404040202DA
:100090000202020203030303030301020408102007
:1000A0004080010204081020010204081020000012
:1000B0000007000201000003040600000000000029
:1000C000000051020A0611241FBECFEFD8E0DEBFA8
:1000D000CDBF11E0A0E0B1E0ECE2FEE002C005908F
:1000E0000D92AA34B107D9F712E0AAE4B1E001C039
:1000F0001D92A732B107E1F710E0C6ECD0E004C0D2
:100100002297FE010E941007C23CD107C9F70E9446
:1001100073030C9414070C940000FB01DC010190A4
:100120000D920020E1F708950F931F938C01FC01BD
:10013000848160E00E94380481E090E00E94D00356
:10014000F801848161E00E94380481E090E00E941F
:10015000D003F801848160E00E94380484E690E0D6
:100160000E94D0031F910F910895CF92DF92EF92DA
:10017000FF920F931F93CF93DF93D82EC92E282F72
:10018000392FC9018C01C0E0D0E0E62EFF24F80130
:10019000858161E00E941804B7010C2E02C075959C
:1001A00067950A94E2F76170F80185810E9438042E
:1001B00021960F5F1F4FC830D10549F78D2D9C2D1B
:1001C0000E949400DF91CF911F910F91FF90EF90CB
:1001D000DF90CF900895CF92DF92EF92FF920F932E
:1001E0001F93CF93DF93D82EC92E282F392FC90103
:1001F0008C01C0E0D0E0E62EFF24F801858161E0AB
:100200000E941804B7010C2E02C0759567950A94D8
:10021000E2F76170F80185810E94380421960F5F32
:100220001F4FC430D10549F78D2D9C2D0E9494009D
:10023000DF91CF911F910F91FF90EF90DF90CF90C2
:1002400008951F93CF93DF93EC01162F8A81642FBB
:100250000E9438048B8160E00E9438048D8584FF01
:1002600005C0CE01612F0E94B5000EC0612F70E065
:1002700084E0759567958A95E1F7CE010E94EB00C1
:10028000CE01612F0E94EB00DF91CF911F91089565
:1002900041E00E942101089540E00E94210108955B
:1002A000FC0166856D7F668768600E944C01089539
:1002B000FC016685862F846086876C60CF010E9472
:1002C0004C01089561E00E944C0180ED97E00E948E
:1002D000D0030895CF93DF93EC01423018F08D8561
:1002E00088608D87498B1A8A222329F0413019F4BE
:1002F0008D8584608D8780E593EC0E94D0038A8190
:1003000060E00E9438048C8160E00E9438048B8198
:1003100060E00E9438046D8564FD1DC0CE0163E07D
:100320000E94EB0084E991E10E94D003CE0163E0DA
:100330000E94EB0084E991E10E94D003CE0163E0CA
:100340000E94EB0086E990E00E94D003CE0162E0BB
:100350000E94EB0016C06062CE010E944C0184E94D
:1003600091E10E94D0036D856062CE010E944C0134
:1003700086E990E00E94D0036D856062CE010E9404
:100380004C016D856062CE010E944C0184E08E8735
:10039000CE010E945801CE010E94620182E08F8747
:1003A000CE0166E00E944C01DF91CF9108956F92DB
:1003B0007F928F92AF92CF92EF920F931F93DF9322
:1003C000CF93CDB7DEB73C01162F842FF3014283C4
:1003D00023830483E582C682A78280869D859187D8
:1003E0009E8592879F8593879889948761E00E9474
:1003F0001804F301838161E00E941804F3018481F1
:1004000061E00E941804112319F0F301158603C05E
:1004100080E1F3018587C30160E141E020E00E94B3
:100420006A01CF91DF911F910F91EF90CF90AF9024
:100430008F907F906F9008958F92AF92CF92EF92AE
:100440000F931F93CF93DF93DC01362F542F722F1E
:10045000102FAE2C8C2C89E391E011969C938E93F7
:1004600000D000D0EDB7FEB73196CDB7DEB7198218
:10047000118212821382CD0161E0432F2FEF052FED
:10048000E72EC12E0E94D7010F900F900F900F9072
:10049000DF91CF911F910F91EF90CF90AF908F9000
:1004A0000895CF92EF920F938AE491E06CE04BE0D5
:1004B00025E004E053E0E52E32E0C32E0E941C024A
:1004C0000F91EF90CF9008950F931F93CF93DF93E9
:1004D00084E192E00E94BB05882309F46BC08091FF
:1004E000810190918201892B09F451C0009185010D
:1004F0001091860184E192E00E94CF05C1E7D1E02E
:100500000C0F1D1FD8018C93E0918501F09186019D
:10051000EC0FFD1F84E192E060810E947B06209138
:10052000850130918601F901EC0FFD1F80818D302E
:1005300019F5E1E6F1E010E1DF01812F1D928A95C6
:10054000E9F7CF01BE010E948D00DE011D921A95D0
:10055000E9F7109286011092850181E090E0909376
:10056000840180938301109282011092810184E1C1
:1005700092E060E071E01CC0C901019660E170E0AA
:100580000E94AA06909386018093850113C084E19E
:1005900092E00E94CF058236910561F481E090E0FF
:1005A000909382018093810184E192E060E171E0A7
:1005B0000E948306DF91CF911F910F910895809142
:1005C0005F0190916001892B41F10E94C20320914B
:1005D0005D0130915E01442737FD4095542F621B29
:1005E000730B840B950B2091330130913401442718
:1005F00037FD4095542F261737074807590768F4E9
:100600008091310160E00E9438048AE491E00E9408
:1006100062011092600110925F0108950F931F9381
:100620000AE411E0C8010E946201C8010E94500161
:10063000C80161E671E00E9483060E94C2037093C4
:100640005E0160935D0181E090E090936001809392
:100650005F0110928401109283018091310161E069
:100660000E9438041F910F9108950E94DF020E949A
:1006700064028091830190918401892B11F00E9482
:100680000E0308950F931F9384E192E040E855E232
:1006900060E070E00E94C2040AE411E0C80160E179
:1006A00042E020E00E946A018091310161E00E94F5
:1006B0001804C80164E271E00E9483068091310150
:1006C00061E00E94380481E090E0909360018093A3
:1006D0005F0180E1E1E6F1E0DF011D928A95E9F733
:1006E0001F910F9108950E94DE030E9442030E9411
:1006F0003503FDCF1F920F920FB60F9211242F9347
:100700003F938F939F93AF93BF9380918B01909171
:100710008C01A0918D01B0918E0130918F010196D5
:10072000A11DB11D232F2D5F2D3720F02D570196D0
:10073000A11DB11D20938F0180938B0190938C019B
:10074000A0938D01B0938E018091870190918801D3
:10075000A0918901B0918A010196A11DB11D8093DC
:10076000870190938801A0938901B0938A01BF917A
:10077000AF919F918F913F912F910F900FBE0F904E
:100780001F9018958FB7F89420918B0130918C01B0
:1007900040918D0150918E018FBFB901CA0108951A
:1007A000019759F0FC01EE0FFF1FEE0FFF1F32976C
:1007B0008FB7F8943197F1F78FBF0895789484B587
:1007C000826084BD84B5816084BD85B5826085BD4D
:1007D00085B5816085BDEEE6F0E080818160808333
:1007E000E1E8F0E0808182608083808181608083A5
:1007F000E0E8F0E0808181608083E1EBF0E08081DF
:1008000084608083E0EBF0E0808181608083EAE7B0
:10081000F0E0808184608083808182608083808139
:10082000816080838081806880831092C1000895F8
:10083000282F30E0C90186569F4FFC0194912A571A
:100840003F4FF9018491882391F0E82FF0E0EE0FFB
:10085000FF1FE859FF4FA591B491662329F48C91AD
:10086000909589238C9308958C91892B8C9308956E
:10087000482F50E0CA0182559F4FFC012491CA01C4
:1008800086569F4FFC0194914A575F4FFA0134916D
:100890003323D1F1222331F1233021F480918000E0
:1008A0008F7705C0243031F4809180008F7D809354
:1008B000800018C0213019F484B58F7704C022302D
:1008C00021F484B58F7D84BD0DC0263021F4809144
:1008D000B0008F7705C0273029F48091B0008F7D5C
:1008E0008093B000E32FF0E0EE0FFF1FEE58FF4FB4
:1008F000A591B491662329F48C91909589238C93CA
:1009000008958C91892B8C9308951F920F920FB6A6
:100910000F9211242F933F934F935F936F937F9385
:100920008F939F93AF93BF93EF93FF934091C60034
:10093000E0911002F0911102CF01019660E870E0A1
:100940000E94AA069C01809112029091130228171E
:10095000390739F0E057FE4F40833093110220935E
:100960001002FF91EF91BF91AF919F918F917F9175
:100970006F915F914F913F912F910F900FBE0F900C
:100980001F9018955F926F927F928F929F92AF9275
:10099000BF92CF92DF92EF92FF920F931F93CF936C
:1009A000DF93EC013A014B01413482E458078FE0B8
:1009B000680780E078070CF07FC060E874E88EE19B
:1009C00090E0A40193010E94DF0621503040404096
:1009D0005040CA01B90122E030E040E050E00E94FE
:1009E000DF0659016A01A6019501209530954095D1
:1009F000509594E0220F331F441F551F9A95D1F74D
:100A000060E074E284EF90E00E94DF06CA01B90161
:100A10002FEF30E040E050E00E948B06A4019301EC
:100A20000E94DF06C90181509F4F181619061CF459
:100A3000522E5A9403C055245394521A60E079E020
:100A40008DE390E0A40193010E94DF062150304025
:100A500040405040CA01B90122E030E040E050E09F
:100A60000E94DF06209530954095509583E0220F37
:100A7000331F441F551F8A95D1F760E074E284EF5D
:100A800090E00E94DF06CA01B9012FEF30E040E09C
:100A900050E00E948B06A40193010E94DF06C90169
:100AA00081509F4F181619061CF4822F815002C0E6
:100AB00081E0821B851500F5E885F98581E090E0ED
:100AC0000A8802C0880F991F0A94E2F7808360E0C9
:100AD00079E08DE390E0A40193010E94DF062150AC
:100AE000304040405040CA01B90122E030E040E0CF
:100AF00050E00E94DF0604C0E885F9851082950168
:100B0000EC81FD813083EE81FF812083EA85FB85C6
:100B1000208141E050E0CA010E8402C0880F991F75
:100B20000A94E2F7282B2083EA85FB852081CA01FD
:100B30000F8402C0880F991F0A94E2F7282B2083A4
:100B4000EA85FB858081088802C0440F551F0A94FE
:100B5000E2F7842B8083DF91CF911F910F91FF905B
:100B6000EF90DF90CF90BF90AF909F908F907F904D
:100B70006F905F900895DC011296ED91FC911397B0
:100B8000E058FF4F8191919180589F4F2081318192
:100B9000821B930B60E870E00E94AA060895CF9331
:100BA000DF93DC011296ED91FC911397EF01CE5784
:100BB000DF4F48815981E058FF4F80819181E05893
:100BC000F0408417950719F42FEF3FEF0CC0E40FA6
:100BD000F51F2081CA01019660E870E00E94AA0614
:100BE0009983888330E0C901DF91CF910895FC019A
:100BF000A085B18521898C9190E0022E02C0959547
:100C000087950A94E2F780FFF6CF0484F585E02DFE
:100C10006083089583E491E0909315028093140219
:100C200080E991E0909317028093160285EC90E0A2
:100C3000909319028093180284EC90E090931B0229
:100C400080931A0280EC90E090931D0280931C0226
:100C500081EC90E090931F0280931E0286EC90E05E
:100C6000909321028093200284E08093220283E00B
:100C70008093230287E08093240285E080932502FD
:100C800081E08093260208950F931F93CF93DF9303
:100C90008C01EB0109C02196D801ED91FC910190E6
:100CA000F081E02DC801099568816623A1F7DF91E5
:100CB000CF911F910F910895EF92FF920F931F9381
:100CC000CF93DF938C017B01EA010CC0D7016D91BA
:100CD0007D01D801ED91FC910190F081E02DC801DA
:100CE00009952197209791F7DF91CF911F910F914F
:100CF000FF90EF900895DC01ED91FC910190F0815F
:100D0000E02D09950895DC01ED91FC910280F381BD
:100D1000E02D09950895629FD001739FF001829F95
:100D2000E00DF11D649FE00DF11D929FF00D839F7A
:100D3000F00D749FF00D659FF00D9927729FB00D17
:100D4000E11DF91F639FB00DE11DF91FBD01CF012A
:100D50001124089597FB092E07260AD077FD04D0A9
:100D600049D006D000201AF4709561957F4F089500
:100D7000F6F7909581959F4F0895A1E21A2EAA1B30
:100D8000BB1BFD010DC0AA1FBB1FEE1FFF1FA2173B
:100D9000B307E407F50720F0A21BB30BE40BF50B38
:100DA000661F771F881F991F1A9469F760957095C1
:100DB000809590959B01AC01BD01CF01089597FBF3
:100DC000092E05260ED057FD04D0D7DF0AD0001C0F
:100DD00038F450954095309521953F4F4F4F5F4FD8
:100DE0000895F6F790958095709561957F4F8F4F98
:100DF0009F4F0895AA1BBB1B51E107C0AA1FBB1F31
:100E0000A617B70710F0A61BB70B881F991F5A9596
:100E1000A9F780959095BC01CD010895EE0FFF1FB5
:0C0E20000590F491E02D0994F894FFCFA8
:100E2C0053746F7070696E6720526561642E0A008E
:100E3C00426567696E6E696E6720746F20526561DA
:100E4C00642E0A00446F6E277420537465616C2104
:100E5C00000D00B80B00000000480144065C0600C1
:0A0E6C00000000F70544065C0600D4
:00000001FF
